{
  "contractName": "Executor",
  "abi": [
    {
      "constant": true,
      "inputs": [],
      "name": "stakeContract",
      "outputs": [
        {
          "name": "",
          "type": "address"
        }
      ],
      "payable": false,
      "stateMutability": "view",
      "type": "function"
    },
    {
      "constant": true,
      "inputs": [],
      "name": "approvedRegistry",
      "outputs": [
        {
          "name": "",
          "type": "address"
        }
      ],
      "payable": false,
      "stateMutability": "view",
      "type": "function"
    },
    {
      "constant": true,
      "inputs": [],
      "name": "transferProxy",
      "outputs": [
        {
          "name": "",
          "type": "address"
        }
      ],
      "payable": false,
      "stateMutability": "view",
      "type": "function"
    },
    {
      "constant": true,
      "inputs": [],
      "name": "owner",
      "outputs": [
        {
          "name": "",
          "type": "address"
        }
      ],
      "payable": false,
      "stateMutability": "view",
      "type": "function"
    },
    {
      "constant": true,
      "inputs": [],
      "name": "kyberProxy",
      "outputs": [
        {
          "name": "",
          "type": "address"
        }
      ],
      "payable": false,
      "stateMutability": "view",
      "type": "function"
    },
    {
      "constant": true,
      "inputs": [],
      "name": "paymentRegistry",
      "outputs": [
        {
          "name": "",
          "type": "address"
        }
      ],
      "payable": false,
      "stateMutability": "view",
      "type": "function"
    },
    {
      "constant": false,
      "inputs": [
        {
          "name": "_newOwner",
          "type": "address"
        }
      ],
      "name": "transferOwnership",
      "outputs": [],
      "payable": false,
      "stateMutability": "nonpayable",
      "type": "function"
    },
    {
      "constant": true,
      "inputs": [],
      "name": "cancellationPeriod",
      "outputs": [
        {
          "name": "",
          "type": "uint256"
        }
      ],
      "payable": false,
      "stateMutability": "view",
      "type": "function"
    },
    {
      "inputs": [
        {
          "name": "_transferProxyAddress",
          "type": "address"
        },
        {
          "name": "_stakeContractAddress",
          "type": "address"
        },
        {
          "name": "_paymentRegistryAddress",
          "type": "address"
        },
        {
          "name": "_kyberAddress",
          "type": "address"
        },
        {
          "name": "_approvedRegistryAddress",
          "type": "address"
        }
      ],
      "payable": false,
      "stateMutability": "nonpayable",
      "type": "constructor"
    },
    {
      "anonymous": false,
      "inputs": [
        {
          "indexed": true,
          "name": "subscriptionAddress",
          "type": "address"
        },
        {
          "indexed": true,
          "name": "subscriptionIdentifier",
          "type": "bytes32"
        },
        {
          "indexed": true,
          "name": "tokenAddress",
          "type": "address"
        },
        {
          "indexed": false,
          "name": "dueDate",
          "type": "uint256"
        },
        {
          "indexed": false,
          "name": "amount",
          "type": "uint256"
        },
        {
          "indexed": false,
          "name": "fee",
          "type": "uint256"
        }
      ],
      "name": "SubscriptionActivated",
      "type": "event"
    },
    {
      "anonymous": false,
      "inputs": [
        {
          "indexed": true,
          "name": "subscriptionAddress",
          "type": "address"
        },
        {
          "indexed": true,
          "name": "subscriptionIdentifier",
          "type": "bytes32"
        },
        {
          "indexed": true,
          "name": "claimant",
          "type": "address"
        },
        {
          "indexed": false,
          "name": "dueDate",
          "type": "uint256"
        },
        {
          "indexed": false,
          "name": "staked",
          "type": "uint256"
        }
      ],
      "name": "SubscriptionProcessed",
      "type": "event"
    },
    {
      "anonymous": false,
      "inputs": [
        {
          "indexed": true,
          "name": "subscriptionAddress",
          "type": "address"
        },
        {
          "indexed": true,
          "name": "subscriptionIdentifier",
          "type": "bytes32"
        },
        {
          "indexed": true,
          "name": "releasedBy",
          "type": "address"
        },
        {
          "indexed": false,
          "name": "dueDate",
          "type": "uint256"
        }
      ],
      "name": "SubscriptionReleased",
      "type": "event"
    },
    {
      "anonymous": false,
      "inputs": [
        {
          "indexed": true,
          "name": "subscriptionAddress",
          "type": "address"
        },
        {
          "indexed": true,
          "name": "subscriptionIdentifier",
          "type": "bytes32"
        },
        {
          "indexed": true,
          "name": "originalClaimant",
          "type": "address"
        },
        {
          "indexed": false,
          "name": "newClaimant",
          "type": "address"
        },
        {
          "indexed": false,
          "name": "amountLost",
          "type": "uint256"
        }
      ],
      "name": "SubscriptionLatePaymentCaught",
      "type": "event"
    },
    {
      "anonymous": false,
      "inputs": [
        {
          "indexed": true,
          "name": "previousOwner",
          "type": "address"
        },
        {
          "indexed": true,
          "name": "newOwner",
          "type": "address"
        }
      ],
      "name": "OwnershipTransferred",
      "type": "event"
    },
    {
      "constant": false,
      "inputs": [
        {
          "name": "_period",
          "type": "uint256"
        }
      ],
      "name": "setCancellationPeriod",
      "outputs": [],
      "payable": false,
      "stateMutability": "nonpayable",
      "type": "function"
    },
    {
      "constant": false,
      "inputs": [
        {
          "name": "_subscriptionContract",
          "type": "address"
        },
        {
          "name": "_subscriptionIdentifier",
          "type": "bytes32"
        }
      ],
      "name": "activateSubscription",
      "outputs": [
        {
          "name": "success",
          "type": "bool"
        }
      ],
      "payable": false,
      "stateMutability": "nonpayable",
      "type": "function"
    },
    {
      "constant": false,
      "inputs": [
        {
          "name": "_subscriptionContract",
          "type": "address"
        },
        {
          "name": "_subscriptionIdentifier",
          "type": "bytes32"
        }
      ],
      "name": "collectPayment",
      "outputs": [],
      "payable": false,
      "stateMutability": "nonpayable",
      "type": "function"
    },
    {
      "constant": false,
      "inputs": [
        {
          "name": "_subscriptionContract",
          "type": "address"
        },
        {
          "name": "_subscriptionIdentifier",
          "type": "bytes32"
        }
      ],
      "name": "releasePayment",
      "outputs": [],
      "payable": false,
      "stateMutability": "nonpayable",
      "type": "function"
    },
    {
      "constant": false,
      "inputs": [
        {
          "name": "_subscriptionContract",
          "type": "address"
        },
        {
          "name": "_subscriptionIdentifier",
          "type": "bytes32"
        }
      ],
      "name": "catchLatePayment",
      "outputs": [],
      "payable": false,
      "stateMutability": "nonpayable",
      "type": "function"
    },
    {
      "constant": false,
      "inputs": [
        {
          "name": "_tokenAddress",
          "type": "address"
        }
      ],
      "name": "currentMultiplierFor",
      "outputs": [
        {
          "name": "",
          "type": "uint256"
        }
      ],
      "payable": false,
      "stateMutability": "nonpayable",
      "type": "function"
    }
  ],
  "bytecode": "0x608060405234801561001057600080fd5b5060405160a0806128308339810180604052810190808051906020019092919080519060200190929190805190602001909291908051906020019092919080519060200190929190505050336000806101000a81548173ffffffffffffffffffffffffffffffffffffffff021916908373ffffffffffffffffffffffffffffffffffffffff16021790555084600160006101000a81548173ffffffffffffffffffffffffffffffffffffffff021916908373ffffffffffffffffffffffffffffffffffffffff16021790555083600260006101000a81548173ffffffffffffffffffffffffffffffffffffffff021916908373ffffffffffffffffffffffffffffffffffffffff16021790555082600360006101000a81548173ffffffffffffffffffffffffffffffffffffffff021916908373ffffffffffffffffffffffffffffffffffffffff16021790555081600460006101000a81548173ffffffffffffffffffffffffffffffffffffffff021916908373ffffffffffffffffffffffffffffffffffffffff16021790555080600560006101000a81548173ffffffffffffffffffffffffffffffffffffffff021916908373ffffffffffffffffffffffffffffffffffffffff160217905550505050505061263c806101f46000396000f3006080604052600436106100d0576000357c0100000000000000000000000000000000000000000000000000000000900463ffffffff16806317031c88146100d55780631a1862271461013e5780631a41c8d0146101955780635503b6f4146101ec5780636e667db3146102435780637ed984f01461029a57806389d41397146102eb5780638da5cb5b1461033c578063985cdc6f14610393578063c9377a73146103e4578063f0eeed8114610411578063f13dfb0b14610468578063f2fde38b146104bf578063fb7ae50e14610502575b600080fd5b3480156100e157600080fd5b50610124600480360381019080803573ffffffffffffffffffffffffffffffffffffffff169060200190929190803560001916906020019092919050505061052d565b604051808215151515815260200191505060405180910390f35b34801561014a57600080fd5b50610153610cf6565b604051808273ffffffffffffffffffffffffffffffffffffffff1673ffffffffffffffffffffffffffffffffffffffff16815260200191505060405180910390f35b3480156101a157600080fd5b506101d6600480360381019080803573ffffffffffffffffffffffffffffffffffffffff169060200190929190505050610d1c565b6040518082815260200191505060405180910390f35b3480156101f857600080fd5b50610201610e1d565b604051808273ffffffffffffffffffffffffffffffffffffffff1673ffffffffffffffffffffffffffffffffffffffff16815260200191505060405180910390f35b34801561024f57600080fd5b50610258610e43565b604051808273ffffffffffffffffffffffffffffffffffffffff1673ffffffffffffffffffffffffffffffffffffffff16815260200191505060405180910390f35b3480156102a657600080fd5b506102e9600480360381019080803573ffffffffffffffffffffffffffffffffffffffff1690602001909291908035600019169060200190929190505050610e69565b005b3480156102f757600080fd5b5061033a600480360381019080803573ffffffffffffffffffffffffffffffffffffffff1690602001909291908035600019169060200190929190505050611616565b005b34801561034857600080fd5b50610351611a9f565b604051808273ffffffffffffffffffffffffffffffffffffffff1673ffffffffffffffffffffffffffffffffffffffff16815260200191505060405180910390f35b34801561039f57600080fd5b506103e2600480360381019080803573ffffffffffffffffffffffffffffffffffffffff1690602001909291908035600019169060200190929190505050611ac4565b005b3480156103f057600080fd5b5061040f60048036038101908080359060200190929190505050611ef8565b005b34801561041d57600080fd5b50610426611f5d565b604051808273ffffffffffffffffffffffffffffffffffffffff1673ffffffffffffffffffffffffffffffffffffffff16815260200191505060405180910390f35b34801561047457600080fd5b5061047d611f83565b604051808273ffffffffffffffffffffffffffffffffffffffff1673ffffffffffffffffffffffffffffffffffffffff16815260200191505060405180910390f35b3480156104cb57600080fd5b50610500600480360381019080803573ffffffffffffffffffffffffffffffffffffffff169060200190929190505050611fa9565b005b34801561050e57600080fd5b506105176120fe565b6040518082815260200191505060405180910390f35b600080600080600080600080899650600560009054906101000a900473ffffffffffffffffffffffffffffffffffffffff1673ffffffffffffffffffffffffffffffffffffffff1663ec18e22e8b6040518263ffffffff167c0100000000000000000000000000000000000000000000000000000000028152600401808273ffffffffffffffffffffffffffffffffffffffff1673ffffffffffffffffffffffffffffffffffffffff168152602001915050602060405180830381600087803b1580156105f957600080fd5b505af115801561060d573d6000803e3d6000fd5b505050506040513d602081101561062357600080fd5b8101908080519060200190929190505050151561063f57600080fd5b600015158773ffffffffffffffffffffffffffffffffffffffff1663dd8d11e28b6040518263ffffffff167c0100000000000000000000000000000000000000000000000000000000028152600401808260001916600019168152602001915050602060405180830381600087803b1580156106ba57600080fd5b505af11580156106ce573d6000803e3d6000fd5b505050506040513d60208110156106e457600080fd5b8101908080519060200190929190505050151514151561070357600080fd5b8673ffffffffffffffffffffffffffffffffffffffff166312fa3b648a6040518263ffffffff167c0100000000000000000000000000000000000000000000000000000000028152600401808260001916600019168152602001915050602060405180830381600087803b15801561077a57600080fd5b505af115801561078e573d6000803e3d6000fd5b505050506040513d60208110156107a457600080fd5b810190808051906020019092919050505095508673ffffffffffffffffffffffffffffffffffffffff16633b5bd8a28a6040518263ffffffff167c0100000000000000000000000000000000000000000000000000000000028152600401808260001916600019168152602001915050602060405180830381600087803b15801561082e57600080fd5b505af1158015610842573d6000803e3d6000fd5b505050506040513d602081101561085857600080fd5b810190808051906020019092919050505094508673ffffffffffffffffffffffffffffffffffffffff16638d0b40c08a6040518263ffffffff167c0100000000000000000000000000000000000000000000000000000000028152600401808260001916600019168152602001915050602060405180830381600087803b1580156108e257600080fd5b505af11580156108f6573d6000803e3d6000fd5b505050506040513d602081101561090c57600080fd5b810190808051906020019092919050505093508673ffffffffffffffffffffffffffffffffffffffff1663bce3cf8b8a6040518263ffffffff167c0100000000000000000000000000000000000000000000000000000000028152600401808260001916600019168152602001915050602060405180830381600087803b15801561099657600080fd5b505af11580156109aa573d6000803e3d6000fd5b505050506040513d60208110156109c057600080fd5b810190808051906020019092919050505092508673ffffffffffffffffffffffffffffffffffffffff1663e848bb808a6040518263ffffffff167c01000000000000000000000000000000000000000000000000000000000281526004018082600019166000191681526020019150506040805180830381600087803b158015610a4957600080fd5b505af1158015610a5d573d6000803e3d6000fd5b505050506040513d6040811015610a7357600080fd5b81019080805190602001909291908051906020019092919050505091509150610a9e86838387612104565b600360009054906101000a900473ffffffffffffffffffffffffffffffffffffffff1673ffffffffffffffffffffffffffffffffffffffff16635cebcef18a8888610ae7612517565b0188886040518663ffffffff167c01000000000000000000000000000000000000000000000000000000000281526004018086600019166000191681526020018573ffffffffffffffffffffffffffffffffffffffff1673ffffffffffffffffffffffffffffffffffffffff16815260200184815260200183815260200182815260200195505050505050602060405180830381600087803b158015610b8c57600080fd5b505af1158015610ba0573d6000803e3d6000fd5b505050506040513d6020811015610bb657600080fd5b8101908080519060200190929190505050508673ffffffffffffffffffffffffffffffffffffffff1663667b4df7610bec612517565b8b6040518363ffffffff167c010000000000000000000000000000000000000000000000000000000002815260040180838152602001826000191660001916815260200192505050600060405180830381600087803b158015610c4e57600080fd5b505af1158015610c62573d6000803e3d6000fd5b505050508573ffffffffffffffffffffffffffffffffffffffff1689600019168b73ffffffffffffffffffffffffffffffffffffffff167f87d5cd40e7b0169072beef81e671dc8634513dffb1406c71b720d084433851ae8789610cc4612517565b018860405180848152602001838152602001828152602001935050505060405180910390a45050505050505092915050565b600260009054906101000a900473ffffffffffffffffffffffffffffffffffffffff1681565b6000600560009054906101000a900473ffffffffffffffffffffffffffffffffffffffff1673ffffffffffffffffffffffffffffffffffffffff1663cb31fdf9836040518263ffffffff167c0100000000000000000000000000000000000000000000000000000000028152600401808273ffffffffffffffffffffffffffffffffffffffff1673ffffffffffffffffffffffffffffffffffffffff168152602001915050602060405180830381600087803b158015610ddb57600080fd5b505af1158015610def573d6000803e3d6000fd5b505050506040513d6020811015610e0557600080fd5b81019080805190602001909291905050509050919050565b600560009054906101000a900473ffffffffffffffffffffffffffffffffffffffff1681565b600160009054906101000a900473ffffffffffffffffffffffffffffffffffffffff1681565b600080600080600080600080600080600080600360009054906101000a900473ffffffffffffffffffffffffffffffffffffffff1673ffffffffffffffffffffffffffffffffffffffff1663d070e5818e6040518263ffffffff167c010000000000000000000000000000000000000000000000000000000002815260040180826000191660001916815260200191505061010060405180830381600087803b158015610f1557600080fd5b505af1158015610f29573d6000803e3d6000fd5b505050506040513d610100811015610f4057600080fd5b8101908080519060200190929190805190602001909291908051906020019092919080519060200190929190805190602001909291908051906020019092919080519060200190929190805190602001909291905050509b509b509b509b509b509b509b509b508a610fb0612517565b10151515610fbd57600080fd5b3373ffffffffffffffffffffffffffffffffffffffff168773ffffffffffffffffffffffffffffffffffffffff16148061100d575060008773ffffffffffffffffffffffffffffffffffffffff16145b151561101857600080fd5b8d93508373ffffffffffffffffffffffffffffffffffffffff16633b5bd8a28e6040518263ffffffff167c0100000000000000000000000000000000000000000000000000000000028152600401808260001916600019168152602001915050602060405180830381600087803b15801561109257600080fd5b505af11580156110a6573d6000803e3d6000fd5b505050506040513d60208110156110bc57600080fd5b810190808051906020019092919050505092506110d88c610d1c565b9150898202905060008514156112235780600260009054906101000a900473ffffffffffffffffffffffffffffffffffffffff1673ffffffffffffffffffffffffffffffffffffffff166333de237f338f6040518363ffffffff167c0100000000000000000000000000000000000000000000000000000000028152600401808373ffffffffffffffffffffffffffffffffffffffff1673ffffffffffffffffffffffffffffffffffffffff1681526020018273ffffffffffffffffffffffffffffffffffffffff1673ffffffffffffffffffffffffffffffffffffffff16815260200192505050602060405180830381600087803b1580156111da57600080fd5b505af11580156111ee573d6000803e3d6000fd5b505050506040513d602081101561120457600080fd5b81019080805190602001909291905050501015151561122257600080fd5b5b6112318e8e8e338e8e61251f565b61123a8c610d1c565b85111561135b57600260009054906101000a900473ffffffffffffffffffffffffffffffffffffffff1673ffffffffffffffffffffffffffffffffffffffff16635d638b79338e8d868a03026040518463ffffffff167c0100000000000000000000000000000000000000000000000000000000028152600401808473ffffffffffffffffffffffffffffffffffffffff1673ffffffffffffffffffffffffffffffffffffffff1681526020018373ffffffffffffffffffffffffffffffffffffffff1673ffffffffffffffffffffffffffffffffffffffff1681526020018281526020019350505050600060405180830381600087803b15801561133e57600080fd5b505af1158015611352573d6000803e3d6000fd5b50505050611477565b600085141561147657600260009054906101000a900473ffffffffffffffffffffffffffffffffffffffff1673ffffffffffffffffffffffffffffffffffffffff1663634b4555338e846040518463ffffffff167c0100000000000000000000000000000000000000000000000000000000028152600401808473ffffffffffffffffffffffffffffffffffffffff1673ffffffffffffffffffffffffffffffffffffffff1681526020018373ffffffffffffffffffffffffffffffffffffffff1673ffffffffffffffffffffffffffffffffffffffff1681526020018281526020019350505050600060405180830381600087803b15801561145d57600080fd5b505af1158015611471573d6000803e3d6000fd5b505050505b5b600360009054906101000a900473ffffffffffffffffffffffffffffffffffffffff1673ffffffffffffffffffffffffffffffffffffffff166306f6e1d48e33868f01866040518563ffffffff167c01000000000000000000000000000000000000000000000000000000000281526004018085600019166000191681526020018473ffffffffffffffffffffffffffffffffffffffff1673ffffffffffffffffffffffffffffffffffffffff168152602001838152602001828152602001945050505050602060405180830381600087803b15801561155657600080fd5b505af115801561156a573d6000803e3d6000fd5b505050506040513d602081101561158057600080fd5b8101908080519060200190929190505050503373ffffffffffffffffffffffffffffffffffffffff168d600019168f73ffffffffffffffffffffffffffffffffffffffff167f38a70b7608fa661614f17c1c552e381fe3ffa6fa20b301ae6a4240cedc0001cf868f0185604051808381526020018281526020019250505060405180910390a45050505050505050505050505050565b600080600080600080600360009054906101000a900473ffffffffffffffffffffffffffffffffffffffff1673ffffffffffffffffffffffffffffffffffffffff1663d070e581886040518263ffffffff167c010000000000000000000000000000000000000000000000000000000002815260040180826000191660001916815260200191505061010060405180830381600087803b1580156116b957600080fd5b505af11580156116cd573d6000803e3d6000fd5b505050506040513d6101008110156116e457600080fd5b8101908080519060200190929190805190602001909291908051906020019092919080519060200190929190805190602001909291908051906020019092919080519060200190929190805190602001909291905050509750975097505050955095509550818501611754612517565b11151561176057600080fd5b8273ffffffffffffffffffffffffffffffffffffffff163373ffffffffffffffffffffffffffffffffffffffff161415151561179b57600080fd5b600260009054906101000a900473ffffffffffffffffffffffffffffffffffffffff1673ffffffffffffffffffffffffffffffffffffffff166307e37e6f8488848802336040518563ffffffff167c0100000000000000000000000000000000000000000000000000000000028152600401808573ffffffffffffffffffffffffffffffffffffffff1673ffffffffffffffffffffffffffffffffffffffff1681526020018473ffffffffffffffffffffffffffffffffffffffff1673ffffffffffffffffffffffffffffffffffffffff1681526020018381526020018273ffffffffffffffffffffffffffffffffffffffff1673ffffffffffffffffffffffffffffffffffffffff168152602001945050505050600060405180830381600087803b1580156118ca57600080fd5b505af11580156118de573d6000803e3d6000fd5b50505050600360009054906101000a900473ffffffffffffffffffffffffffffffffffffffff1673ffffffffffffffffffffffffffffffffffffffff166318a4946988856040518363ffffffff167c01000000000000000000000000000000000000000000000000000000000281526004018083600019166000191681526020018273ffffffffffffffffffffffffffffffffffffffff1673ffffffffffffffffffffffffffffffffffffffff16815260200192505050602060405180830381600087803b1580156119af57600080fd5b505af11580156119c3573d6000803e3d6000fd5b505050506040513d60208110156119d957600080fd5b8101908080519060200190929190505050506119f58888610e69565b8273ffffffffffffffffffffffffffffffffffffffff1687600019168973ffffffffffffffffffffffffffffffffffffffff167f7fe729d37b867408f89ff923d4cdae8a099ff4cd397087ad47c52069ebe0e04833858902604051808373ffffffffffffffffffffffffffffffffffffffff1673ffffffffffffffffffffffffffffffffffffffff1681526020018281526020019250505060405180910390a45050505050505050565b6000809054906101000a900473ffffffffffffffffffffffffffffffffffffffff1681565b600080600080600080600080600360009054906101000a900473ffffffffffffffffffffffffffffffffffffffff1673ffffffffffffffffffffffffffffffffffffffff1663d070e5818a6040518263ffffffff167c010000000000000000000000000000000000000000000000000000000002815260040180826000191660001916815260200191505061010060405180830381600087803b158015611b6a57600080fd5b505af1158015611b7e573d6000803e3d6000fd5b505050506040513d610100811015611b9557600080fd5b810190808051906020019092919080519060200190929190805190602001909291908051906020019092919080519060200190929190805190602001909291908051906020019092919080519060200190929190505050985098509850985050975097509750828501905080611c09612517565b10158015611c2157506006548101611c1f612517565b105b1515611c2c57600080fd5b3373ffffffffffffffffffffffffffffffffffffffff168473ffffffffffffffffffffffffffffffffffffffff16141515611c6657600080fd5b600360009054906101000a900473ffffffffffffffffffffffffffffffffffffffff1673ffffffffffffffffffffffffffffffffffffffff166318a494698a336040518363ffffffff167c01000000000000000000000000000000000000000000000000000000000281526004018083600019166000191681526020018273ffffffffffffffffffffffffffffffffffffffff1673ffffffffffffffffffffffffffffffffffffffff16815260200192505050602060405180830381600087803b158015611d3357600080fd5b505af1158015611d47573d6000803e3d6000fd5b505050506040513d6020811015611d5d57600080fd5b810190808051906020019092919050505050600260009054906101000a900473ffffffffffffffffffffffffffffffffffffffff1673ffffffffffffffffffffffffffffffffffffffff16635d638b79338a858a026040518463ffffffff167c0100000000000000000000000000000000000000000000000000000000028152600401808473ffffffffffffffffffffffffffffffffffffffff1673ffffffffffffffffffffffffffffffffffffffff1681526020018373ffffffffffffffffffffffffffffffffffffffff1673ffffffffffffffffffffffffffffffffffffffff1681526020018281526020019350505050600060405180830381600087803b158015611e6a57600080fd5b505af1158015611e7e573d6000803e3d6000fd5b505050503373ffffffffffffffffffffffffffffffffffffffff1689600019168b73ffffffffffffffffffffffffffffffffffffffff167fae2b509e02ab3e14434eaeab923443a21a087813e5cc60d14ac1ac76555654668a6040518082815260200191505060405180910390a450505050505050505050565b6000809054906101000a900473ffffffffffffffffffffffffffffffffffffffff1673ffffffffffffffffffffffffffffffffffffffff163373ffffffffffffffffffffffffffffffffffffffff16141515611f5357600080fd5b8060068190555050565b600460009054906101000a900473ffffffffffffffffffffffffffffffffffffffff1681565b600360009054906101000a900473ffffffffffffffffffffffffffffffffffffffff1681565b6000809054906101000a900473ffffffffffffffffffffffffffffffffffffffff1673ffffffffffffffffffffffffffffffffffffffff163373ffffffffffffffffffffffffffffffffffffffff1614151561200457600080fd5b600073ffffffffffffffffffffffffffffffffffffffff168173ffffffffffffffffffffffffffffffffffffffff161415151561204057600080fd5b8073ffffffffffffffffffffffffffffffffffffffff166000809054906101000a900473ffffffffffffffffffffffffffffffffffffffff1673ffffffffffffffffffffffffffffffffffffffff167f8be0079c531659141344cd1fd0a4f28419497f9722a3daafe3b4186f6b6457e060405160405180910390a3806000806101000a81548173ffffffffffffffffffffffffffffffffffffffff021916908373ffffffffffffffffffffffffffffffffffffffff16021790555050565b60065481565b60008473ffffffffffffffffffffffffffffffffffffffff166370a08231846040518263ffffffff167c0100000000000000000000000000000000000000000000000000000000028152600401808273ffffffffffffffffffffffffffffffffffffffff1673ffffffffffffffffffffffffffffffffffffffff168152602001915050602060405180830381600087803b1580156121a157600080fd5b505af11580156121b5573d6000803e3d6000fd5b505050506040513d60208110156121cb57600080fd5b81019080805190602001909291905050509050818573ffffffffffffffffffffffffffffffffffffffff166370a08231866040518263ffffffff167c0100000000000000000000000000000000000000000000000000000000028152600401808273ffffffffffffffffffffffffffffffffffffffff1673ffffffffffffffffffffffffffffffffffffffff168152602001915050602060405180830381600087803b15801561227a57600080fd5b505af115801561228e573d6000803e3d6000fd5b505050506040513d60208110156122a457600080fd5b8101908080519060200190929190505050101515156122c257600080fd5b600160009054906101000a900473ffffffffffffffffffffffffffffffffffffffff1673ffffffffffffffffffffffffffffffffffffffff166315dacbea868686866040518563ffffffff167c0100000000000000000000000000000000000000000000000000000000028152600401808573ffffffffffffffffffffffffffffffffffffffff1673ffffffffffffffffffffffffffffffffffffffff1681526020018473ffffffffffffffffffffffffffffffffffffffff1673ffffffffffffffffffffffffffffffffffffffff1681526020018373ffffffffffffffffffffffffffffffffffffffff1673ffffffffffffffffffffffffffffffffffffffff168152602001828152602001945050505050602060405180830381600087803b1580156123ef57600080fd5b505af1158015612403573d6000803e3d6000fd5b505050506040513d602081101561241957600080fd5b81019080805190602001909291905050505081818673ffffffffffffffffffffffffffffffffffffffff166370a08231866040518263ffffffff167c0100000000000000000000000000000000000000000000000000000000028152600401808273ffffffffffffffffffffffffffffffffffffffff1673ffffffffffffffffffffffffffffffffffffffff168152602001915050602060405180830381600087803b1580156124c857600080fd5b505af11580156124dc573d6000803e3d6000fd5b505050506040513d60208110156124f257600080fd5b81019080805190602001909291905050500314151561251057600080fd5b5050505050565b600042905090565b6000806000808993508792508373ffffffffffffffffffffffffffffffffffffffff1663e848bb808a6040518263ffffffff167c01000000000000000000000000000000000000000000000000000000000281526004018082600019166000191681526020019150506040805180830381600087803b1580156125a157600080fd5b505af11580156125b5573d6000803e3d6000fd5b505050506040513d60408110156125cb57600080fd5b810190808051906020019092919080519060200190929190505050915091506125f8838383888a03612104565b61260483838988612104565b505050505050505050505600a165627a7a723058204e0932c2ff7cc820190802632e2299d41b1fc2009162731ba54a364368e1cc720029",
  "source": "pragma solidity 0.4.24;\n\nimport \"./base/ownership/Ownable.sol\";\nimport \"./base/token/ERC20.sol\";\nimport \"./base/token/WETH.sol\";\n\nimport \"./Collectable.sol\";\nimport \"./TransferProxy.sol\";\nimport \"./StakeContract.sol\";\nimport \"./PaymentRegistry.sol\";\nimport \"./KyberNetworkInterface.sol\";\nimport \"./ApprovedRegistry.sol\";\n\n/** @title Contains all the data required for a user's active subscription. */\n/** @author Kerman Kohli - <kerman@8xprotocol.com> */\n\ncontract Executor is Ownable {\n\n    TransferProxy public transferProxy;\n    StakeContract public stakeContract;\n    PaymentRegistry public paymentRegistry;\n    KyberNetworkInterface public kyberProxy;\n    ApprovedRegistry public approvedRegistry;\n\n    uint public cancellationPeriod;\n\n    event SubscriptionActivated(\n        address indexed subscriptionAddress,\n        bytes32 indexed subscriptionIdentifier,\n        address indexed tokenAddress,\n        uint dueDate,\n        uint amount,\n        uint fee\n    );\n\n    event SubscriptionProcessed(\n        address indexed subscriptionAddress,\n        bytes32 indexed subscriptionIdentifier,\n        address indexed claimant,\n        uint dueDate,\n        uint staked\n    );\n\n    event SubscriptionReleased(\n        address indexed subscriptionAddress,\n        bytes32 indexed subscriptionIdentifier,\n        address indexed releasedBy,\n        uint dueDate\n    );\n\n    event SubscriptionLatePaymentCaught(\n        address indexed subscriptionAddress,\n        bytes32 indexed subscriptionIdentifier,\n        address indexed originalClaimant,\n        address newClaimant,\n        uint amountLost\n    );\n\n    /**\n      * PUBLIC FUNCTIONS\n    */\n\n    /** @dev Set the addresses for the relevant contracts\n      * @param _transferProxyAddress the address for the designated transfer proxy.\n      * @param _stakeContractAddress the address for the stake contract.\n      * @param _paymentRegistryAddress the address for the payment registry.\n      * @param _kyberAddress the address for the kyber network contract.\n      * @param _approvedRegistryAddress the address for the approved registry contract.\n    */\n    constructor(\n        address _transferProxyAddress,\n        address _stakeContractAddress,\n        address _paymentRegistryAddress,\n        address _kyberAddress,\n        address _approvedRegistryAddress\n    )\n        public\n    {\n        // @TODO: Figure out how to add tests for this\n\n        transferProxy = TransferProxy(_transferProxyAddress);\n        stakeContract = StakeContract(_stakeContractAddress);\n        paymentRegistry = PaymentRegistry(_paymentRegistryAddress);\n        kyberProxy = KyberNetworkInterface(_kyberAddress);\n        approvedRegistry = ApprovedRegistry(_approvedRegistryAddress);\n    }\n\n    /** @dev Set the amount of time after a payment a service node has to cancel.\n      * @param _period is the amount of time they have.\n    */\n    function setCancellationPeriod(uint _period) public onlyOwner {\n        cancellationPeriod = _period;\n    }\n\n    /** @dev Active a subscription once it's been created (make the first payment) paid from wrapped Ether.\n      * @param _subscriptionContract is the contract where the details exist(adheres to Collectible contract interface).\n      * @param _subscriptionIdentifier is the identifier of that customer's subscription with its relevant details.\n    */\n    function activateSubscription(\n        address _subscriptionContract,\n        bytes32 _subscriptionIdentifier\n    )\n        public\n        returns (bool success)\n    {\n\n        // Initiate an instance of the collectable subscription\n        Collectable subscription = Collectable(_subscriptionContract);\n\n        // Check if the subscription is valid\n        require(approvedRegistry.isContractAuthorised(_subscriptionContract));\n        require(subscription.isValidSubscription(_subscriptionIdentifier) == false);\n\n        // Get the detauls of the subscription\n        ERC20 transactingToken = ERC20(subscription.getSubscriptionTokenAddress(_subscriptionIdentifier));\n        uint subscriptionInterval = subscription.getSubscriptionInterval(_subscriptionIdentifier);\n        uint amountDue = subscription.getAmountDueFromSubscription(_subscriptionIdentifier);\n        uint fee = subscription.getSubscriptionFee(_subscriptionIdentifier);\n        (address consumer, address business) = subscription.getSubscriptionFromToAddresses(_subscriptionIdentifier);\n\n        // Make the payment safely\n        makeSafePayment(transactingToken, consumer, business, amountDue);\n\n        // Create a new record in the payments registry\n        paymentRegistry.createNewPayment(\n            _subscriptionIdentifier, // Subscription identifier\n            address(transactingToken), // Token address\n            currentTimestamp() + subscriptionInterval, // Next due date\n            amountDue, // Amount due\n            fee // Fee\n        );\n\n        // Start the subscription\n        subscription.setStartDate(currentTimestamp(), _subscriptionIdentifier);\n\n        // Emit the appropriate event to show subscription has been activated\n        emit SubscriptionActivated(\n            _subscriptionContract,\n            _subscriptionIdentifier,\n            address(transactingToken),\n            amountDue,\n            currentTimestamp() + subscriptionInterval,\n            fee\n        );\n    }\n\n    /** @dev Collect the payment due from the subscriber.\n      * @param _subscriptionContract is the contract where the details exist(adheres to Collectible contract interface).\n      * @param _subscriptionIdentifier is the identifier of that customer's subscription with its relevant details.\n    */\n    function collectPayment(\n        address _subscriptionContract,\n        bytes32 _subscriptionIdentifier\n    )\n        public\n    {\n        // Get the current payment registry object (if it doesn't exist execution will eventually fail)\n        (\n            address tokenAddress,\n            uint dueDate,\n            uint amount,\n            uint fee,\n            uint lastPaymentDate,\n            address claimant,\n            uint executionPeriod,\n            uint stakeMultiplier\n        ) = paymentRegistry.getPaymentInformation(_subscriptionIdentifier);\n\n        // Check to make sure the payment is due\n        require(currentTimestamp() >= dueDate);\n\n        // Check to make sure it hasn't been claimed by someone else or belongs to you\n        require(claimant == msg.sender || claimant == 0);\n\n        // Check it isn't too late to claim (past execution) or too late\n        Collectable subscription = Collectable(_subscriptionContract);\n        uint interval = subscription.getSubscriptionInterval(_subscriptionIdentifier);\n        // @TODO: Implementation\n\n        // Check that the service node calling has enough staked tokens\n        uint currentMultiplier = currentMultiplierFor(tokenAddress);\n        uint requiredStake = currentMultiplier * amount;\n        if (stakeMultiplier == 0) {\n            require(stakeContract.getAvailableStake(msg.sender, tokenAddress) >= requiredStake);\n        }\n\n        // Make payments to the business and service node\n        makeSafePayments(\n            _subscriptionContract,\n            _subscriptionIdentifier,\n            tokenAddress,\n            msg.sender,\n            amount,\n            fee\n        );\n\n        // If the current multiplier is lower than the one in the object, free the difference\n        if (stakeMultiplier > currentMultiplierFor(tokenAddress)) {\n            stakeContract.unstakeTokens(\n                msg.sender,\n                tokenAddress,\n                (stakeMultiplier - currentMultiplier) * amount\n            );\n        } else if (stakeMultiplier == 0) {\n            stakeContract.stakeTokens(msg.sender, tokenAddress, requiredStake);\n        }\n\n        // Update the payment registry\n        paymentRegistry.claimPayment(\n            _subscriptionIdentifier, // Identifier of subscription\n            msg.sender, // The claimant\n            dueDate + interval, // Next payment due date\n            currentMultiplier // Current multiplier set for the currency\n        );\n\n        // Emit the subscription processed event\n        emit SubscriptionProcessed(_subscriptionContract, _subscriptionIdentifier, msg.sender, dueDate + interval, requiredStake);\n\n    }\n\n    /** @dev Release the payment/responsibility of a service node\n      * @param _subscriptionContract is the contract where the details exist(adheres to Collectible contract interface).\n      * @param _subscriptionIdentifier is the identifier of that customer's subscription with its relevant details.\n    */\n    function releasePayment(\n        address _subscriptionContract,\n        bytes32 _subscriptionIdentifier\n    )\n        public\n    {\n\n        // Get the payment registry information\n        (\n            address tokenAddress,\n            uint dueDate,\n            uint amount,\n            ,\n            uint lastPaymentDate,\n            address claimant,\n            uint executionPeriod,\n            uint stakeMultiplier\n        ) = paymentRegistry.getPaymentInformation(_subscriptionIdentifier);\n\n        // Make sure we're within the cancellation window\n        uint minimumDate = lastPaymentDate + executionPeriod;\n        require(\n            currentTimestamp() >= minimumDate && // Must be past last payment date and the execution period\n            currentTimestamp() < (minimumDate + cancellationPeriod) // Can't be past the cancellation period\n        );\n\n        // Check that it belongs to the rightful claimant/service node\n        require(claimant == msg.sender);\n\n        // Call the remove claim on payments registry\n        paymentRegistry.removeClaimant(\n            _subscriptionIdentifier,\n            msg.sender\n        );\n\n        // Unstake tokens\n        stakeContract.unstakeTokens(\n            msg.sender,\n            tokenAddress,\n            amount * stakeMultiplier\n        );\n\n        // Emit the correct event\n        emit SubscriptionReleased(_subscriptionContract, _subscriptionIdentifier, msg.sender, dueDate);\n\n    }\n\n    /** @dev Catch another service node who didn't collect their payment on time.\n      * @param _subscriptionContract is the contract where the details exist(adheres to Collectible contract interface).\n      * @param _subscriptionIdentifier is the identifier of that customer's subscription with its relevant details.\n    */\n    function catchLatePayment(\n        address _subscriptionContract,\n        bytes32 _subscriptionIdentifier\n    )\n        public\n    {\n\n        // Get the payment object\n        (\n            address tokenAddress,\n            uint dueDate,\n            uint amount,\n            ,\n            ,\n            address claimant,\n            uint executionPeriod,\n            uint stakeMultiplier\n        ) = paymentRegistry.getPaymentInformation(_subscriptionIdentifier);\n\n        // First make sure it's past the due date and execution period\n        require(currentTimestamp() > (dueDate + executionPeriod));\n\n        // Ensure the original claimant can't call this function\n        require(msg.sender != claimant);\n\n        // Slash the tokens and give them to this caller = $$$\n        stakeContract.transferStake(\n            claimant,\n            tokenAddress,\n            amount * stakeMultiplier,\n            msg.sender\n        );\n\n        // Remove as claimant\n        paymentRegistry.removeClaimant(\n            _subscriptionIdentifier,\n            claimant\n        );\n\n        // Call collect payment function as this caller\n        collectPayment(_subscriptionContract, _subscriptionIdentifier);\n\n        // Emit an event to say a late payment was caught and processed\n        emit SubscriptionLatePaymentCaught(\n            _subscriptionContract,\n            _subscriptionIdentifier,\n            claimant,\n            msg.sender,\n            amount * stakeMultiplier\n        );\n    }\n\n    // @TODO: Handle stale payments\n\n    /**\n      * INTERNAL FUNCTIONS\n    */\n    /** @dev Current timestamp returned via a function in order for mocks in tests\n    */\n    function currentTimestamp()\n        internal\n        view\n        returns (uint timetstamp)\n    {\n        // solhint-disable-next-line\n        return block.timestamp;\n    }\n\n    /**\n      * PRIVATE FUNCTION\n    */\n\n    function makeSafePayments(\n        address _subscriptionContract,\n        bytes32 _subscriptionIdentifier,\n        address _tokenAddress,\n        address _serviceNode,\n        uint _amount,\n        uint _fee\n    )\n        private\n    {\n        Collectable subscription = Collectable(_subscriptionContract);\n        ERC20 transactingToken = ERC20(_tokenAddress);\n\n        (address consumer, address business) = subscription.getSubscriptionFromToAddresses(_subscriptionIdentifier);\n\n        makeSafePayment(transactingToken, consumer, business, _amount - _fee);\n        makeSafePayment(transactingToken, consumer, _serviceNode, _fee);\n    }\n\n    function makeSafePayment(\n        ERC20 _transactingToken,\n        address _from,\n        address _to,\n        uint _amount\n    )\n        private\n    {\n        // Get the businesses balance before the transaction\n        uint balanceOfBusinessBeforeTransfer = _transactingToken.balanceOf(_to);\n\n        // Check if the user has enough funds\n        require(_transactingToken.balanceOf(_from) >= _amount);\n\n        // Send currency to the destination business\n        transferProxy.transferFrom(address(_transactingToken), _from, _to, _amount);\n\n        // Check the business actually received the funds by checking the difference\n        require((_transactingToken.balanceOf(_to) - balanceOfBusinessBeforeTransfer) == _amount);\n    }\n\n    function currentMultiplierFor(address _tokenAddress) public returns(uint) {\n        return approvedRegistry.getMultiplierFor(_tokenAddress);\n    }\n\n}",
  "sourcePath": "/Users/kermankohli/8x-protocol/contracts/contracts/Executor.sol",
  "compiler": {
    "name": "solc",
    "version": "0.4.24+commit.e67f0147.Emscripten.clang"
  },
  "schemaVersion": "2.0.1",
  "updatedAt": "2018-08-07T03:32:02.275Z"
}