{
  "contractName": "Plans",
  "abi": [
    {
      "constant": true,
      "inputs": [],
      "name": "owner",
      "outputs": [
        {
          "name": "",
          "type": "address"
        }
      ],
      "payable": false,
      "stateMutability": "view",
      "type": "function"
    },
    {
      "constant": true,
      "inputs": [
        {
          "name": "",
          "type": "bytes32"
        }
      ],
      "name": "plans",
      "outputs": [
        {
          "name": "owner",
          "type": "address"
        },
        {
          "name": "identifier",
          "type": "string"
        },
        {
          "name": "name",
          "type": "string"
        },
        {
          "name": "description",
          "type": "string"
        },
        {
          "name": "terminationDate",
          "type": "uint256"
        },
        {
          "name": "interval",
          "type": "uint256"
        },
        {
          "name": "amount",
          "type": "uint256"
        },
        {
          "name": "data",
          "type": "string"
        }
      ],
      "payable": false,
      "stateMutability": "view",
      "type": "function"
    },
    {
      "constant": false,
      "inputs": [
        {
          "name": "newOwner",
          "type": "address"
        }
      ],
      "name": "transferOwnership",
      "outputs": [],
      "payable": false,
      "stateMutability": "nonpayable",
      "type": "function"
    },
    {
      "inputs": [],
      "payable": false,
      "stateMutability": "nonpayable",
      "type": "constructor"
    },
    {
      "anonymous": false,
      "inputs": [
        {
          "indexed": false,
          "name": "identifier",
          "type": "bytes32"
        }
      ],
      "name": "Created",
      "type": "event"
    },
    {
      "anonymous": false,
      "inputs": [
        {
          "indexed": false,
          "name": "identifier",
          "type": "bytes32"
        }
      ],
      "name": "Updated",
      "type": "event"
    },
    {
      "anonymous": false,
      "inputs": [
        {
          "indexed": false,
          "name": "identifier",
          "type": "bytes32"
        },
        {
          "indexed": false,
          "name": "terminationDate",
          "type": "uint256"
        }
      ],
      "name": "Terminated",
      "type": "event"
    },
    {
      "anonymous": false,
      "inputs": [
        {
          "indexed": true,
          "name": "previousOwner",
          "type": "address"
        },
        {
          "indexed": true,
          "name": "newOwner",
          "type": "address"
        }
      ],
      "name": "OwnershipTransferred",
      "type": "event"
    },
    {
      "constant": false,
      "inputs": [
        {
          "name": "_plan",
          "type": "bytes32"
        },
        {
          "name": "_terminationDate",
          "type": "uint256"
        }
      ],
      "name": "terminatePlan",
      "outputs": [],
      "payable": false,
      "stateMutability": "nonpayable",
      "type": "function"
    },
    {
      "constant": false,
      "inputs": [
        {
          "name": "_owner",
          "type": "address"
        },
        {
          "name": "_identifier",
          "type": "string"
        },
        {
          "name": "_name",
          "type": "string"
        },
        {
          "name": "_description",
          "type": "string"
        },
        {
          "name": "_interval",
          "type": "uint256"
        },
        {
          "name": "_amount",
          "type": "uint256"
        },
        {
          "name": "_data",
          "type": "string"
        }
      ],
      "name": "createPlan",
      "outputs": [
        {
          "name": "_newPlanHash",
          "type": "bytes32"
        }
      ],
      "payable": false,
      "stateMutability": "nonpayable",
      "type": "function"
    },
    {
      "constant": false,
      "inputs": [
        {
          "name": "_plan",
          "type": "bytes32"
        },
        {
          "name": "_owner",
          "type": "address"
        }
      ],
      "name": "setPlanOwner",
      "outputs": [],
      "payable": false,
      "stateMutability": "nonpayable",
      "type": "function"
    },
    {
      "constant": false,
      "inputs": [
        {
          "name": "_plan",
          "type": "bytes32"
        },
        {
          "name": "_name",
          "type": "string"
        }
      ],
      "name": "setPlanName",
      "outputs": [],
      "payable": false,
      "stateMutability": "nonpayable",
      "type": "function"
    },
    {
      "constant": false,
      "inputs": [
        {
          "name": "_plan",
          "type": "bytes32"
        },
        {
          "name": "_description",
          "type": "string"
        }
      ],
      "name": "setPlanDescription",
      "outputs": [],
      "payable": false,
      "stateMutability": "nonpayable",
      "type": "function"
    },
    {
      "constant": false,
      "inputs": [
        {
          "name": "_plan",
          "type": "bytes32"
        },
        {
          "name": "_data",
          "type": "string"
        }
      ],
      "name": "setPlanData",
      "outputs": [],
      "payable": false,
      "stateMutability": "nonpayable",
      "type": "function"
    },
    {
      "constant": true,
      "inputs": [
        {
          "name": "_plan",
          "type": "bytes32"
        }
      ],
      "name": "getPlan",
      "outputs": [
        {
          "name": "_owner",
          "type": "address"
        },
        {
          "name": "_identifier",
          "type": "string"
        },
        {
          "name": "_name",
          "type": "string"
        },
        {
          "name": "_description",
          "type": "string"
        },
        {
          "name": "_terminationDate",
          "type": "uint256"
        },
        {
          "name": "_interval",
          "type": "uint256"
        },
        {
          "name": "_amount",
          "type": "uint256"
        },
        {
          "name": "_data",
          "type": "string"
        }
      ],
      "payable": false,
      "stateMutability": "view",
      "type": "function"
    },
    {
      "constant": true,
      "inputs": [
        {
          "name": "_plan",
          "type": "bytes32"
        }
      ],
      "name": "getPlanOwner",
      "outputs": [
        {
          "name": "_owner",
          "type": "address"
        }
      ],
      "payable": false,
      "stateMutability": "view",
      "type": "function"
    },
    {
      "constant": true,
      "inputs": [
        {
          "name": "_plan",
          "type": "bytes32"
        }
      ],
      "name": "getPlanIdentifier",
      "outputs": [
        {
          "name": "_identifier",
          "type": "string"
        }
      ],
      "payable": false,
      "stateMutability": "view",
      "type": "function"
    },
    {
      "constant": true,
      "inputs": [
        {
          "name": "_plan",
          "type": "bytes32"
        }
      ],
      "name": "getPlanDescription",
      "outputs": [
        {
          "name": "_description",
          "type": "string"
        }
      ],
      "payable": false,
      "stateMutability": "view",
      "type": "function"
    },
    {
      "constant": true,
      "inputs": [
        {
          "name": "_plan",
          "type": "bytes32"
        }
      ],
      "name": "getPlanName",
      "outputs": [
        {
          "name": "_name",
          "type": "string"
        }
      ],
      "payable": false,
      "stateMutability": "view",
      "type": "function"
    },
    {
      "constant": true,
      "inputs": [
        {
          "name": "_plan",
          "type": "bytes32"
        }
      ],
      "name": "getPlanTerminationDate",
      "outputs": [
        {
          "name": "_terminationDate",
          "type": "uint256"
        }
      ],
      "payable": false,
      "stateMutability": "view",
      "type": "function"
    },
    {
      "constant": true,
      "inputs": [
        {
          "name": "_plan",
          "type": "bytes32"
        }
      ],
      "name": "getPlanInterval",
      "outputs": [
        {
          "name": "_interval",
          "type": "uint256"
        }
      ],
      "payable": false,
      "stateMutability": "view",
      "type": "function"
    },
    {
      "constant": true,
      "inputs": [
        {
          "name": "_plan",
          "type": "bytes32"
        }
      ],
      "name": "getPlanAmount",
      "outputs": [
        {
          "name": "_amount",
          "type": "uint256"
        }
      ],
      "payable": false,
      "stateMutability": "view",
      "type": "function"
    },
    {
      "constant": true,
      "inputs": [
        {
          "name": "_plan",
          "type": "bytes32"
        }
      ],
      "name": "getPlanData",
      "outputs": [
        {
          "name": "_data",
          "type": "string"
        }
      ],
      "payable": false,
      "stateMutability": "view",
      "type": "function"
    }
  ],
  "bytecode": "0x608060405234801561001057600080fd5b50336000806101000a81548173ffffffffffffffffffffffffffffffffffffffff021916908373ffffffffffffffffffffffffffffffffffffffff160217905550336000806101000a81548173ffffffffffffffffffffffffffffffffffffffff021916908373ffffffffffffffffffffffffffffffffffffffff160217905550612269806100a06000396000f3006080604052600436106100fc576000357c0100000000000000000000000000000000000000000000000000000000900463ffffffff1680635866b8f614610101578063649bd05b1461014657806366fc8c5c146101bd5780636f1a72fc1461020e57806372973b96146102b85780638da5cb5b1461044357806394265d001461049a578063962f45e4146104df578063a0f7382614610556578063aa4f26531461078c578063b023e5c8146109c2578063bc24c15f14610a33578063dce63bc914610add578063f227608814610b87578063f2fde38b14610c31578063f413d29b14610c74578063f8ec24d714610cb9578063fead075c14610d30575b600080fd5b34801561010d57600080fd5b506101306004803603810190808035600019169060200190929190505050610d6b565b6040518082815260200191505060405180910390f35b34801561015257600080fd5b506101bb6004803603810190808035600019169060200190929190803590602001908201803590602001908080601f0160208091040260200160405190810160405280939291908181526020018383808284378201915050505050509192919290505050610d93565b005b3480156101c957600080fd5b5061020c6004803603810190808035600019169060200190929190803573ffffffffffffffffffffffffffffffffffffffff169060200190929190505050610e85565b005b34801561021a57600080fd5b5061023d6004803603810190808035600019169060200190929190505050610fd8565b6040518080602001828103825283818151815260200191508051906020019080838360005b8381101561027d578082015181840152602081019050610262565b50505050905090810190601f1680156102aa5780820380516001836020036101000a031916815260200191505b509250505060405180910390f35b3480156102c457600080fd5b50610425600480360381019080803573ffffffffffffffffffffffffffffffffffffffff169060200190929190803590602001908201803590602001908080601f0160208091040260200160405190810160405280939291908181526020018383808284378201915050505050509192919290803590602001908201803590602001908080601f0160208091040260200160405190810160405280939291908181526020018383808284378201915050505050509192919290803590602001908201803590602001908080601f01602080910402602001604051908101604052809392919081815260200183838082843782019150505050505091929192908035906020019092919080359060200190929190803590602001908201803590602001908080601f0160208091040260200160405190810160405280939291908181526020018383808284378201915050505050509192919290505050611098565b60405180826000191660001916815260200191505060405180910390f35b34801561044f57600080fd5b5061045861139d565b604051808273ffffffffffffffffffffffffffffffffffffffff1673ffffffffffffffffffffffffffffffffffffffff16815260200191505060405180910390f35b3480156104a657600080fd5b506104c960048036038101908080356000191690602001909291905050506113c2565b6040518082815260200191505060405180910390f35b3480156104eb57600080fd5b506105546004803603810190808035600019169060200190929190803590602001908201803590602001908080601f01602080910402602001604051908101604052809392919081815260200183838082843782019150505050505091929192905050506113ea565b005b34801561056257600080fd5b5061058560048036038101908080356000191690602001909291905050506114dc565b604051808973ffffffffffffffffffffffffffffffffffffffff1673ffffffffffffffffffffffffffffffffffffffff1681526020018060200180602001806020018881526020018781526020018681526020018060200185810385528c818151815260200191508051906020019080838360005b838110156106155780820151818401526020810190506105fa565b50505050905090810190601f1680156106425780820380516001836020036101000a031916815260200191505b5085810384528b818151815260200191508051906020019080838360005b8381101561067b578082015181840152602081019050610660565b50505050905090810190601f1680156106a85780820380516001836020036101000a031916815260200191505b5085810383528a818151815260200191508051906020019080838360005b838110156106e15780820151818401526020810190506106c6565b50505050905090810190601f16801561070e5780820380516001836020036101000a031916815260200191505b50858103825286818151815260200191508051906020019080838360005b8381101561074757808201518184015260208101905061072c565b50505050905090810190601f1680156107745780820380516001836020036101000a031916815260200191505b509c5050505050505050505050505060405180910390f35b34801561079857600080fd5b506107bb60048036038101908080356000191690602001909291905050506117d9565b604051808973ffffffffffffffffffffffffffffffffffffffff1673ffffffffffffffffffffffffffffffffffffffff1681526020018060200180602001806020018881526020018781526020018681526020018060200185810385528c818151815260200191508051906020019080838360005b8381101561084b578082015181840152602081019050610830565b50505050905090810190601f1680156108785780820380516001836020036101000a031916815260200191505b5085810384528b818151815260200191508051906020019080838360005b838110156108b1578082015181840152602081019050610896565b50505050905090810190601f1680156108de5780820380516001836020036101000a031916815260200191505b5085810383528a818151815260200191508051906020019080838360005b838110156109175780820151818401526020810190506108fc565b50505050905090810190601f1680156109445780820380516001836020036101000a031916815260200191505b50858103825286818151815260200191508051906020019080838360005b8381101561097d578082015181840152602081019050610962565b50505050905090810190601f1680156109aa5780820380516001836020036101000a031916815260200191505b509c5050505050505050505050505060405180910390f35b3480156109ce57600080fd5b506109f16004803603810190808035600019169060200190929190505050611aa1565b604051808273ffffffffffffffffffffffffffffffffffffffff1673ffffffffffffffffffffffffffffffffffffffff16815260200191505060405180910390f35b348015610a3f57600080fd5b50610a626004803603810190808035600019169060200190929190505050611ae9565b6040518080602001828103825283818151815260200191508051906020019080838360005b83811015610aa2578082015181840152602081019050610a87565b50505050905090810190601f168015610acf5780820380516001836020036101000a031916815260200191505b509250505060405180910390f35b348015610ae957600080fd5b50610b0c6004803603810190808035600019169060200190929190505050611ba9565b6040518080602001828103825283818151815260200191508051906020019080838360005b83811015610b4c578082015181840152602081019050610b31565b50505050905090810190601f168015610b795780820380516001836020036101000a031916815260200191505b509250505060405180910390f35b348015610b9357600080fd5b50610bb66004803603810190808035600019169060200190929190505050611c69565b6040518080602001828103825283818151815260200191508051906020019080838360005b83811015610bf6578082015181840152602081019050610bdb565b50505050905090810190601f168015610c235780820380516001836020036101000a031916815260200191505b509250505060405180910390f35b348015610c3d57600080fd5b50610c72600480360381019080803573ffffffffffffffffffffffffffffffffffffffff169060200190929190505050611d29565b005b348015610c8057600080fd5b50610ca36004803603810190808035600019169060200190929190505050611e7e565b6040518082815260200191505060405180910390f35b348015610cc557600080fd5b50610d2e6004803603810190808035600019169060200190929190803590602001908201803590602001908080601f0160208091040260200160405190810160405280939291908181526020018383808284378201915050505050509192919290505050611ea6565b005b348015610d3c57600080fd5b50610d69600480360381019080803560001916906020019092919080359060200190929190505050611f98565b005b6000600160008360001916600019168152602001908152602001600020600601549050919050565b8160016000826000191660001916815260200190815260200160002060000160009054906101000a900473ffffffffffffffffffffffffffffffffffffffff1673ffffffffffffffffffffffffffffffffffffffff163373ffffffffffffffffffffffffffffffffffffffff16141515610e0c57600080fd5b82826001600086600019166000191681526020019081526020016000206007019080519060200190610e3f9291906120bc565b507fae7f59c2ef152eb4d4f56fcc655f53926d60b7e58e08ec8c79387e25adbf33318160405180826000191660001916815260200191505060405180910390a150505050565b8160016000826000191660001916815260200190815260200160002060000160009054906101000a900473ffffffffffffffffffffffffffffffffffffffff1673ffffffffffffffffffffffffffffffffffffffff163373ffffffffffffffffffffffffffffffffffffffff16141515610efe57600080fd5b82600073ffffffffffffffffffffffffffffffffffffffff168373ffffffffffffffffffffffffffffffffffffffff16141515610f93578260016000866000191660001916815260200190815260200160002060000160006101000a81548173ffffffffffffffffffffffffffffffffffffffff021916908373ffffffffffffffffffffffffffffffffffffffff1602179055505b7fae7f59c2ef152eb4d4f56fcc655f53926d60b7e58e08ec8c79387e25adbf33318160405180826000191660001916815260200191505060405180910390a150505050565b60606001600083600019166000191681526020019081526020016000206001018054600181600116156101000203166002900480601f01602080910402602001604051908101604052809291908181526020018280546001816001161561010002031660029004801561108c5780601f106110615761010080835404028352916020019161108c565b820191906000526020600020905b81548152906001019060200180831161106f57829003601f168201915b50505050509050919050565b6000806110a361213c565b60008a73ffffffffffffffffffffffffffffffffffffffff16141515156110c957600080fd5b600089511115156110d957600080fd5b6000861115156110e857600080fd5b6000851115156110f757600080fd5b8989604051808373ffffffffffffffffffffffffffffffffffffffff1673ffffffffffffffffffffffffffffffffffffffff166c0100000000000000000000000002815260140182805190602001908083835b60208310151561116f578051825260208201915060208101905060208303925061114a565b6001836020036101000a0380198251168184511680821785525050505050509050019250505060405180910390209150600060016000846000191660001916815260200190815260200160002060000160009054906101000a900473ffffffffffffffffffffffffffffffffffffffff1673ffffffffffffffffffffffffffffffffffffffff1614151561120257600080fd5b610100604051908101604052808b73ffffffffffffffffffffffffffffffffffffffff1681526020018a8152602001898152602001888152602001600081526020018781526020018681526020018581525090508060016000846000191660001916815260200190815260200160002060008201518160000160006101000a81548173ffffffffffffffffffffffffffffffffffffffff021916908373ffffffffffffffffffffffffffffffffffffffff16021790555060208201518160010190805190602001906112d5929190612198565b5060408201518160020190805190602001906112f2929190612198565b50606082015181600301908051906020019061130f929190612198565b506080820151816004015560a0820151816005015560c0820151816006015560e082015181600701908051906020019061134a929190612198565b509050507f102d25c49d33fcdb8976a3f2744e0785c98d9e43b88364859e6aec4ae82eff5c8260405180826000191660001916815260200191505060405180910390a18192505050979650505050505050565b6000809054906101000a900473ffffffffffffffffffffffffffffffffffffffff1681565b6000600160008360001916600019168152602001908152602001600020600401549050919050565b8160016000826000191660001916815260200190815260200160002060000160009054906101000a900473ffffffffffffffffffffffffffffffffffffffff1673ffffffffffffffffffffffffffffffffffffffff163373ffffffffffffffffffffffffffffffffffffffff1614151561146357600080fd5b828260016000866000191660001916815260200190815260200160002060020190805190602001906114969291906120bc565b507fae7f59c2ef152eb4d4f56fcc655f53926d60b7e58e08ec8c79387e25adbf33318160405180826000191660001916815260200191505060405180910390a150505050565b60006060806060600080600060606000600160008b6000191660001916815260200190815260200160002090508060000160009054906101000a900473ffffffffffffffffffffffffffffffffffffffff1681600101826002018360030184600401548560050154866006015487600701868054600181600116156101000203166002900480601f0160208091040260200160405190810160405280929190818152602001828054600181600116156101000203166002900480156115e25780601f106115b7576101008083540402835291602001916115e2565b820191906000526020600020905b8154815290600101906020018083116115c557829003601f168201915b50505050509650858054600181600116156101000203166002900480601f01602080910402602001604051908101604052809291908181526020018280546001816001161561010002031660029004801561167e5780601f106116535761010080835404028352916020019161167e565b820191906000526020600020905b81548152906001019060200180831161166157829003601f168201915b50505050509550848054600181600116156101000203166002900480601f01602080910402602001604051908101604052809291908181526020018280546001816001161561010002031660029004801561171a5780601f106116ef5761010080835404028352916020019161171a565b820191906000526020600020905b8154815290600101906020018083116116fd57829003601f168201915b50505050509450808054600181600116156101000203166002900480601f0160208091040260200160405190810160405280929190818152602001828054600181600116156101000203166002900480156117b65780601f1061178b576101008083540402835291602001916117b6565b820191906000526020600020905b81548152906001019060200180831161179957829003601f168201915b505050505090509850985098509850985098509850985050919395975091939597565b60016020528060005260406000206000915090508060000160009054906101000a900473ffffffffffffffffffffffffffffffffffffffff1690806001018054600181600116156101000203166002900480601f0160208091040260200160405190810160405280929190818152602001828054600181600116156101000203166002900480156118ab5780601f10611880576101008083540402835291602001916118ab565b820191906000526020600020905b81548152906001019060200180831161188e57829003601f168201915b505050505090806002018054600181600116156101000203166002900480601f0160208091040260200160405190810160405280929190818152602001828054600181600116156101000203166002900480156119495780601f1061191e57610100808354040283529160200191611949565b820191906000526020600020905b81548152906001019060200180831161192c57829003601f168201915b505050505090806003018054600181600116156101000203166002900480601f0160208091040260200160405190810160405280929190818152602001828054600181600116156101000203166002900480156119e75780601f106119bc576101008083540402835291602001916119e7565b820191906000526020600020905b8154815290600101906020018083116119ca57829003601f168201915b505050505090806004015490806005015490806006015490806007018054600181600116156101000203166002900480601f016020809104026020016040519081016040528092919081815260200182805460018160011615610100020316600290048015611a975780601f10611a6c57610100808354040283529160200191611a97565b820191906000526020600020905b815481529060010190602001808311611a7a57829003601f168201915b5050505050905088565b600060016000836000191660001916815260200190815260200160002060000160009054906101000a900473ffffffffffffffffffffffffffffffffffffffff169050919050565b60606001600083600019166000191681526020019081526020016000206003018054600181600116156101000203166002900480601f016020809104026020016040519081016040528092919081815260200182805460018160011615610100020316600290048015611b9d5780601f10611b7257610100808354040283529160200191611b9d565b820191906000526020600020905b815481529060010190602001808311611b8057829003601f168201915b50505050509050919050565b60606001600083600019166000191681526020019081526020016000206002018054600181600116156101000203166002900480601f016020809104026020016040519081016040528092919081815260200182805460018160011615610100020316600290048015611c5d5780601f10611c3257610100808354040283529160200191611c5d565b820191906000526020600020905b815481529060010190602001808311611c4057829003601f168201915b50505050509050919050565b60606001600083600019166000191681526020019081526020016000206007018054600181600116156101000203166002900480601f016020809104026020016040519081016040528092919081815260200182805460018160011615610100020316600290048015611d1d5780601f10611cf257610100808354040283529160200191611d1d565b820191906000526020600020905b815481529060010190602001808311611d0057829003601f168201915b50505050509050919050565b6000809054906101000a900473ffffffffffffffffffffffffffffffffffffffff1673ffffffffffffffffffffffffffffffffffffffff163373ffffffffffffffffffffffffffffffffffffffff16141515611d8457600080fd5b600073ffffffffffffffffffffffffffffffffffffffff168173ffffffffffffffffffffffffffffffffffffffff1614151515611dc057600080fd5b8073ffffffffffffffffffffffffffffffffffffffff166000809054906101000a900473ffffffffffffffffffffffffffffffffffffffff1673ffffffffffffffffffffffffffffffffffffffff167f8be0079c531659141344cd1fd0a4f28419497f9722a3daafe3b4186f6b6457e060405160405180910390a3806000806101000a81548173ffffffffffffffffffffffffffffffffffffffff021916908373ffffffffffffffffffffffffffffffffffffffff16021790555050565b6000600160008360001916600019168152602001908152602001600020600501549050919050565b8160016000826000191660001916815260200190815260200160002060000160009054906101000a900473ffffffffffffffffffffffffffffffffffffffff1673ffffffffffffffffffffffffffffffffffffffff163373ffffffffffffffffffffffffffffffffffffffff16141515611f1f57600080fd5b82826001600086600019166000191681526020019081526020016000206003019080519060200190611f529291906120bc565b507fae7f59c2ef152eb4d4f56fcc655f53926d60b7e58e08ec8c79387e25adbf33318160405180826000191660001916815260200191505060405180910390a150505050565b8160016000826000191660001916815260200190815260200160002060000160009054906101000a900473ffffffffffffffffffffffffffffffffffffffff1673ffffffffffffffffffffffffffffffffffffffff163373ffffffffffffffffffffffffffffffffffffffff1614151561201157600080fd5b42821015151561202057600080fd5b60006001600085600019166000191681526020019081526020016000206004015414151561204d57600080fd5b81600160008560001916600019168152602001908152602001600020600401819055507fe8e8a511b6a7d9af6f8c5e2b23c2a3d6672383462f00d00b1db7c7c2b94104c783836040518083600019166000191681526020018281526020019250505060405180910390a1505050565b828054600181600116156101000203166002900490600052602060002090601f016020900481019282601f106120fd57805160ff191683800117855561212b565b8280016001018555821561212b579182015b8281111561212a57825182559160200191906001019061210f565b5b5090506121389190612218565b5090565b61010060405190810160405280600073ffffffffffffffffffffffffffffffffffffffff168152602001606081526020016060815260200160608152602001600081526020016000815260200160008152602001606081525090565b828054600181600116156101000203166002900490600052602060002090601f016020900481019282601f106121d957805160ff1916838001178555612207565b82800160010185558215612207579182015b828111156122065782518255916020019190600101906121eb565b5b5090506122149190612218565b5090565b61223a91905b8082111561223657600081600090555060010161221e565b5090565b905600a165627a7a72305820d023ac1317262c30352d5afe1409d0528e4ed35c42dff5f02ed33ecabef3b1a00029",
  "source": "pragma solidity ^0.4.21;\n\nimport \"./base/ownership/Ownable.sol\";\n\n/** @title Contains all the metadata required for a subscription plan. */\n/** @author Kerman Kohli - <kerman@TBD.com> */\n\ncontract Plans is Ownable {\n\n    struct Plan {\n\n        address owner;\n\n        string identifier;\n        string name;\n        string description; \n\n        uint terminationDate;\n        uint interval;\n        uint amount;\n\n        string data;\n\n    }\n\n    mapping (bytes32 => Plan) public plans;\n\n    event Created(bytes32 identifier);\n    event Updated(bytes32 identifier);\n    event Terminated(bytes32 identifier, uint terminationDate);\n\n    /*\n      * Modifiers\n    */\n\n    modifier isOwnerOfPlan(bytes32 _plan) {\n        require(msg.sender == plans[_plan].owner);\n        _;\n    }\n\n    modifier shouldEmitChanges(bytes32 _plan) {\n        _;\n        emit Updated(_plan);\n    }\n\n    /*\n      * External functions\n    */\n\n    /** @dev Terminate's the plan in case the merchant wants to discontinue the service.\n      * @param _plan is the hash of the user's address + identifier.\n      * @param _terminationDate is the date from which they would like to terminate the service.\n    */\n\n    function terminatePlan(bytes32 _plan, uint _terminationDate)\n        external\n        isOwnerOfPlan(_plan) {\n        require(_terminationDate >= block.timestamp);\n        require(plans[_plan].terminationDate == 0); // If it's already been set then we don't want it to be modified.\n        plans[_plan].terminationDate = _terminationDate;\n        emit Terminated(_plan, _terminationDate);\n    }\n\n    /*\n      * Public functions\n    */\n\n    /** @dev Constructor function */\n\n    function Plans() public {\n        owner = msg.sender;\n    }\n\n    /** @dev This is the function for creating a new plan.\n      * @param _owner the address which owns this contract and to which a payment will be made.\n      * @param _identifier a way to uniquely identify a product for each vendor.\n      * @param _name a front-end displaying name for the product.\n      * @param _description a front-end displaying description for the product.\n      * @param _interval after how many days should a customer be charged.\n      * @param _amount how much should the consumer be charged (in cents).\n      * @param _data any extra data they'd like to store.\n    */\n\n    function createPlan(\n        address _owner, // Required\n        string _identifier, // Required\n        string _name,\n        string _description,\n        uint _interval, // Required\n        uint _amount, // Required\n        string _data\n    )\n        public\n        returns (bytes32 _newPlanHash)\n    {\n\n        require(_owner != 0x0);\n        require(bytes(_identifier).length > 0);\n        require(_interval > 0);\n        require(_amount > 0);\n\n        bytes32 newPlanHash = keccak256(_owner, _identifier);\n        require(plans[newPlanHash].owner == 0x0);\n\n        Plan memory newPlan = Plan({\n            owner: _owner, \n            identifier: _identifier, \n            name: _name, \n            description: _description, \n            terminationDate: 0,\n            interval: _interval,\n            amount: _amount,\n            data: _data\n        });\n\n        plans[newPlanHash] = newPlan;\n\n        emit Created(newPlanHash);\n\n        return newPlanHash;\n    }\n\n    /** @dev Updates the plan's owner in case they want to receive funds in another address.\n      * @param _plan is the hash of the user's address + identifier.\n      * @param _owner the address which they want to update it to.\n    */\n\n    function setPlanOwner(bytes32 _plan, address _owner) \n        public\n        isOwnerOfPlan(_plan)\n        shouldEmitChanges(_plan) {\n        if (_owner != address(0)) {\n            plans[_plan].owner = _owner;\n        }\n    }\n\n    /** @dev Updates the name of the product (visible to the user).\n      * @param _plan is the hash of the user's address + identifier.\n      * @param _name the name which they want to update it to.\n    */\n\n    function setPlanName(bytes32 _plan, string _name) \n        public\n        isOwnerOfPlan(_plan)\n        shouldEmitChanges(_plan) {\n        plans[_plan].name = _name;\n    }\n\n    /** @dev Updates the description of the product (visible to the user).\n      * @param _plan is the hash of the user's address + identifier.\n      * @param _description the description which they want to update it to.\n    */\n\n    function setPlanDescription(bytes32 _plan, string _description) \n        public\n        isOwnerOfPlan(_plan)\n        shouldEmitChanges(_plan) {\n        plans[_plan].description = _description;\n    }\n\n    /** @dev Updates the data field which can be used to store anything extra.\n      * @param _plan is the hash of the user's address + identifier.\n      * @param _data the data which they want to update it to.\n    */\n\n    function setPlanData(bytes32 _plan, string _data) \n        public\n        isOwnerOfPlan(_plan)\n        shouldEmitChanges(_plan) {\n        plans[_plan].data = _data;\n    }\n\n    /** @dev Retrieve a plan from the plans mapping by providing an identifier.\n      * @param _plan is the hash of the user's address + identifier.\n    */\n\n    function getPlan(bytes32 _plan)\n        view\n        public\n        returns (\n            address _owner,\n            string _identifier,\n            string _name,\n            string _description,\n            uint _terminationDate,\n            uint _interval,\n            uint _amount,\n            string _data\n        )\n    {\n        Plan storage plan = plans[_plan];\n        return (\n            plan.owner,\n            plan.identifier,\n            plan.name,\n            plan.description,\n            plan.terminationDate,\n            plan.interval,\n            plan.amount,\n            plan.data\n        );\n    }\n\n    /** @dev Get the owner for the plan.\n      * @param _plan is the hash of the user's address + identifier.\n    */\n\n    function getPlanOwner(bytes32 _plan)\n        public\n        view \n        returns (address _owner) {\n        return plans[_plan].owner;\n    }\n\n     /** @dev Get the identifier for the plan.\n      * @param _plan is the hash of the user's address + identifier.\n    */\n\n    function getPlanIdentifier(bytes32 _plan)\n        public\n        view \n        returns (string _identifier) {\n        return plans[_plan].identifier;\n    }\n\n    /** @dev Get the description for the plan.\n      * @param _plan is the hash of the user's address + identifier.\n    */\n\n    function getPlanDescription(bytes32 _plan)\n        public\n        view \n        returns (string _description) {\n        return plans[_plan].description;\n    }\n\n    /** @dev Get the name for the plan.\n      * @param _plan is the hash of the user's address + identifier.\n    */\n\n    function getPlanName(bytes32 _plan)\n        public\n        view \n        returns (string _name) {\n        return plans[_plan].name;\n    }\n\n    /** @dev Get the termination date for the plan.\n      * @param _plan is the hash of the user's address + identifier.\n    */\n\n    function getPlanTerminationDate(bytes32 _plan)\n        public\n        view \n        returns (uint _terminationDate) {\n        return plans[_plan].terminationDate;\n    }\n    \n    /** @dev Get the interval for the plan.\n      * @param _plan is the hash of the user's address + identifier.\n    */\n\n    function getPlanInterval(bytes32 _plan)\n        public\n        view \n        returns (uint _interval) {\n        return plans[_plan].interval;\n    }\n\n    /** @dev Get the amount for the plan.\n      * @param _plan is the hash of the user's address + identifier.\n    */\n\n    function getPlanAmount(bytes32 _plan)\n        public\n        view \n        returns (uint _amount) {\n        return plans[_plan].amount;\n    }\n\n    /** @dev Get the extra data for the plan.\n      * @param _plan is the hash of the user's address + identifier.\n    */\n\n    function getPlanData(bytes32 _plan)\n        public\n        view \n        returns (string _data) {\n        return plans[_plan].data;\n    }\n\n    /*\n      * Internal functions\n    */\n\n    /*\n      * Private functions\n    */\n\n}\n",
  "sourcePath": "/Users/kermankohli/crypto/ethme/contracts/Plans.sol",
  "compiler": {
    "name": "solc",
    "version": "0.4.23+commit.124ca40d.Emscripten.clang"
  },
  "schemaVersion": "2.0.0",
  "updatedAt": "2018-04-22T07:49:07.399Z"
}