{
  "contractName": "Plans",
  "abi": [
    {
      "constant": true,
      "inputs": [],
      "name": "owner",
      "outputs": [
        {
          "name": "",
          "type": "address"
        }
      ],
      "payable": false,
      "stateMutability": "view",
      "type": "function"
    },
    {
      "constant": true,
      "inputs": [
        {
          "name": "",
          "type": "bytes32"
        }
      ],
      "name": "plans",
      "outputs": [
        {
          "name": "owner",
          "type": "address"
        },
        {
          "name": "name",
          "type": "string"
        },
        {
          "name": "identifier",
          "type": "string"
        },
        {
          "name": "description",
          "type": "string"
        },
        {
          "name": "terminationDate",
          "type": "uint256"
        },
        {
          "name": "interval",
          "type": "uint256"
        },
        {
          "name": "amount",
          "type": "uint256"
        }
      ],
      "payable": false,
      "stateMutability": "view",
      "type": "function"
    },
    {
      "inputs": [],
      "payable": false,
      "stateMutability": "nonpayable",
      "type": "constructor"
    },
    {
      "constant": false,
      "inputs": [
        {
          "name": "_plan",
          "type": "bytes32"
        },
        {
          "name": "_terminationDate",
          "type": "uint256"
        }
      ],
      "name": "terminatePlan",
      "outputs": [],
      "payable": false,
      "stateMutability": "nonpayable",
      "type": "function"
    },
    {
      "constant": false,
      "inputs": [
        {
          "name": "_owner",
          "type": "address"
        },
        {
          "name": "_identifier",
          "type": "string"
        },
        {
          "name": "_name",
          "type": "string"
        },
        {
          "name": "_interval",
          "type": "uint256"
        },
        {
          "name": "_amount",
          "type": "uint256"
        }
      ],
      "name": "createPlan",
      "outputs": [
        {
          "name": "_newPlanHash",
          "type": "bytes32"
        }
      ],
      "payable": false,
      "stateMutability": "nonpayable",
      "type": "function"
    },
    {
      "constant": false,
      "inputs": [
        {
          "name": "_plan",
          "type": "bytes32"
        },
        {
          "name": "_owner",
          "type": "address"
        }
      ],
      "name": "setOwner",
      "outputs": [],
      "payable": false,
      "stateMutability": "nonpayable",
      "type": "function"
    },
    {
      "constant": false,
      "inputs": [
        {
          "name": "_plan",
          "type": "bytes32"
        },
        {
          "name": "_name",
          "type": "string"
        }
      ],
      "name": "setName",
      "outputs": [],
      "payable": false,
      "stateMutability": "nonpayable",
      "type": "function"
    },
    {
      "constant": false,
      "inputs": [
        {
          "name": "_plan",
          "type": "bytes32"
        },
        {
          "name": "_description",
          "type": "string"
        }
      ],
      "name": "setDescription",
      "outputs": [],
      "payable": false,
      "stateMutability": "nonpayable",
      "type": "function"
    },
    {
      "constant": true,
      "inputs": [
        {
          "name": "_plan",
          "type": "bytes32"
        }
      ],
      "name": "getInterval",
      "outputs": [
        {
          "name": "_interval",
          "type": "uint256"
        }
      ],
      "payable": false,
      "stateMutability": "view",
      "type": "function"
    },
    {
      "constant": true,
      "inputs": [
        {
          "name": "_plan",
          "type": "bytes32"
        }
      ],
      "name": "getAmount",
      "outputs": [
        {
          "name": "_amount",
          "type": "uint256"
        }
      ],
      "payable": false,
      "stateMutability": "view",
      "type": "function"
    }
  ],
  "bytecode": "0x608060405234801561001057600080fd5b50336000806101000a81548173ffffffffffffffffffffffffffffffffffffffff021916908373ffffffffffffffffffffffffffffffffffffffff160217905550610db4806100606000396000f300608060405260043610610099576000357c0100000000000000000000000000000000000000000000000000000000900463ffffffff1680630e0a0d741461009e5780635b0fc9c3146100e35780636dbb2f731461013457806373f5e7b71461017957806377372213146101f05780638da5cb5b146102675780639c2a9e52146102be578063aa4f2653146103bd578063fead075c14610587575b600080fd5b3480156100aa57600080fd5b506100cd60048036038101908080356000191690602001909291905050506105c2565b6040518082815260200191505060405180910390f35b3480156100ef57600080fd5b506101326004803603810190808035600019169060200190929190803573ffffffffffffffffffffffffffffffffffffffff1690602001909291905050506105ea565b005b34801561014057600080fd5b506101636004803603810190808035600019169060200190929190505050610668565b6040518082815260200191505060405180910390f35b34801561018557600080fd5b506101ee6004803603810190808035600019169060200190929190803590602001908201803590602001908080601f0160208091040260200160405190810160405280939291908181526020018383808284378201915050505050509192919290505050610690565b005b3480156101fc57600080fd5b506102656004803603810190808035600019169060200190929190803590602001908201803590602001908080601f016020809104026020016040519081016040528093929190818152602001838380828437820191505050505050919291929050505061070e565b005b34801561027357600080fd5b5061027c61078c565b604051808273ffffffffffffffffffffffffffffffffffffffff1673ffffffffffffffffffffffffffffffffffffffff16815260200191505060405180910390f35b3480156102ca57600080fd5b5061039f600480360381019080803573ffffffffffffffffffffffffffffffffffffffff169060200190929190803590602001908201803590602001908080601f0160208091040260200160405190810160405280939291908181526020018383808284378201915050505050509192919290803590602001908201803590602001908080601f016020809104026020016040519081016040528093929190818152602001838380828437820191505050505050919291929080359060200190929190803590602001909291905050506107b1565b60405180826000191660001916815260200191505060405180910390f35b3480156103c957600080fd5b506103ec60048036038101908080356000191690602001909291905050506109ab565b604051808873ffffffffffffffffffffffffffffffffffffffff1673ffffffffffffffffffffffffffffffffffffffff16815260200180602001806020018060200187815260200186815260200185815260200184810384528a818151815260200191508051906020019080838360005b8381101561047857808201518184015260208101905061045d565b50505050905090810190601f1680156104a55780820380516001836020036101000a031916815260200191505b50848103835289818151815260200191508051906020019080838360005b838110156104de5780820151818401526020810190506104c3565b50505050905090810190601f16801561050b5780820380516001836020036101000a031916815260200191505b50848103825288818151815260200191508051906020019080838360005b83811015610544578082015181840152602081019050610529565b50505050905090810190601f1680156105715780820380516001836020036101000a031916815260200191505b509a505050505050505050505060405180910390f35b34801561059357600080fd5b506105c0600480360381019080803560001916906020019092919080359060200190929190505050610bd5565b005b6000600160008360001916600019168152602001908152602001600020600601549050919050565b8160016000826000191660001916815260200190815260200160002060000160009054906101000a900473ffffffffffffffffffffffffffffffffffffffff1673ffffffffffffffffffffffffffffffffffffffff163373ffffffffffffffffffffffffffffffffffffffff1614151561066357600080fd5b505050565b6000600160008360001916600019168152602001908152602001600020600501549050919050565b8160016000826000191660001916815260200190815260200160002060000160009054906101000a900473ffffffffffffffffffffffffffffffffffffffff1673ffffffffffffffffffffffffffffffffffffffff163373ffffffffffffffffffffffffffffffffffffffff1614151561070957600080fd5b505050565b8160016000826000191660001916815260200190815260200160002060000160009054906101000a900473ffffffffffffffffffffffffffffffffffffffff1673ffffffffffffffffffffffffffffffffffffffff163373ffffffffffffffffffffffffffffffffffffffff1614151561078757600080fd5b505050565b6000809054906101000a900473ffffffffffffffffffffffffffffffffffffffff1681565b60006107bb610c8f565b600060e0604051908101604052808973ffffffffffffffffffffffffffffffffffffffff16815260200187815260200188815260200160206040519081016040528060008152508152602001600081526020018681526020018581525091508787604051808373ffffffffffffffffffffffffffffffffffffffff1673ffffffffffffffffffffffffffffffffffffffff166c0100000000000000000000000002815260140182805190602001908083835b602083101515610892578051825260208201915060208101905060208303925061086d565b6001836020036101000a03801982511681845116808217855250505050505090500192505050604051809103902090508160016000836000191660001916815260200190815260200160002060008201518160000160006101000a81548173ffffffffffffffffffffffffffffffffffffffff021916908373ffffffffffffffffffffffffffffffffffffffff1602179055506020820151816001019080519060200190610941929190610ce3565b50604082015181600201908051906020019061095e929190610ce3565b50606082015181600301908051906020019061097b929190610ce3565b506080820151816004015560a0820151816005015560c08201518160060155905050809250505095945050505050565b60016020528060005260406000206000915090508060000160009054906101000a900473ffffffffffffffffffffffffffffffffffffffff1690806001018054600181600116156101000203166002900480601f016020809104026020016040519081016040528092919081815260200182805460018160011615610100020316600290048015610a7d5780601f10610a5257610100808354040283529160200191610a7d565b820191906000526020600020905b815481529060010190602001808311610a6057829003601f168201915b505050505090806002018054600181600116156101000203166002900480601f016020809104026020016040519081016040528092919081815260200182805460018160011615610100020316600290048015610b1b5780601f10610af057610100808354040283529160200191610b1b565b820191906000526020600020905b815481529060010190602001808311610afe57829003601f168201915b505050505090806003018054600181600116156101000203166002900480601f016020809104026020016040519081016040528092919081815260200182805460018160011615610100020316600290048015610bb95780601f10610b8e57610100808354040283529160200191610bb9565b820191906000526020600020905b815481529060010190602001808311610b9c57829003601f168201915b5050505050908060040154908060050154908060060154905087565b8160016000826000191660001916815260200190815260200160002060000160009054906101000a900473ffffffffffffffffffffffffffffffffffffffff1673ffffffffffffffffffffffffffffffffffffffff163373ffffffffffffffffffffffffffffffffffffffff16141515610c4e57600080fd5b428210151515610c5d57600080fd5b600060016000856000191660001916815260200190815260200160002060040154141515610c8a57600080fd5b505050565b60e060405190810160405280600073ffffffffffffffffffffffffffffffffffffffff1681526020016060815260200160608152602001606081526020016000815260200160008152602001600081525090565b828054600181600116156101000203166002900490600052602060002090601f016020900481019282601f10610d2457805160ff1916838001178555610d52565b82800160010185558215610d52579182015b82811115610d51578251825591602001919060010190610d36565b5b509050610d5f9190610d63565b5090565b610d8591905b80821115610d81576000816000905550600101610d69565b5090565b905600a165627a7a723058203fb98c98ad93fd99080cbceea4798f62dba351153ddfcf1388611281adde5c880029",
  "source": "pragma solidity ^0.4.18;\n\n/** @title Contains all the metadata required for a subscription plan */\n\ncontract Plans {\n\n    struct Plan {\n\n        address owner; // The vendor\n\n        string name; // Name of this plan (required)\n        string identifier; // Product indentifier (hidden to user but required)\n        string description; // Optional description (visible to user)\n\n        // @TODO Implement this\n        // bytes public metadata; // Optional data that a vendor may want to include\n\n        uint terminationDate; // Epoch time for when the plan is terminated by the vendor. Cannot be modified once set.\n        uint interval; // Measured in days (required). Cannot be modified once set.\n        uint amount; // Measured in cents (required). Cannot be modified once set.\n\n    }\n\n    address public owner; // Multi-sig wallet or DAO will be in control of this.\n    mapping (bytes32 => Plan) public plans; // A mapping containing all the plans\n\n    /**\n      * Modifiers\n    */\n\n    modifier isOwnerOfContract {\n        require(msg.sender == owner);\n        _;\n    }\n\n    modifier isOwnerOfPlan(bytes32 _plan) {\n        require(msg.sender == plans[_plan].owner);\n        _;\n    }\n\n    /**\n      * External functions\n    */\n\n    function terminatePlan(bytes32 _plan, uint _terminationDate)\n        isOwnerOfPlan(_plan)\n        external {\n        require(_terminationDate >= block.timestamp);\n        require(plans[_plan].terminationDate == 0); // If it's already been set then we don't want it to be modified\n        //plans[_plan].terminationDate = _terminationDate;\n    }\n\n    /**\n      * Public functions\n    */\n\n    function Plans() public {\n        owner = msg.sender;\n    }\n\n    /** @dev This is the function for creating a new plan\n      * @param _owner the address which owns this contract and to which a payment will be made\n      * @param _identifier a way to uniquely identify a product for each vendor\n      * @param _name a front-end displaying name for the product\n      * @param _interval after how many days should a customer be charged\n      * @param _amount how much should the consumer be charged (in cents)\n    */\n\n    function createPlan(\n        address _owner,\n        string _identifier,\n        string _name,\n        uint _interval,\n        uint _amount\n    )\n\n        public\n        returns (bytes32 _newPlanHash)\n    {\n\n        Plan memory newPlan = Plan({\n            owner: _owner, \n            identifier: _identifier, \n            description: \"\", \n            name: _name, \n            terminationDate: 0,\n            interval: _interval,\n            amount: _amount \n        });\n\n        bytes32 newPlanHash = keccak256(_owner, _identifier);\n        plans[newPlanHash] = newPlan;\n\n        return newPlanHash;\n    }\n\n    /** @dev Updates the owner in case they want to receive funds in another address\n      * @param _owner the address which they want to update it to\n    */\n\n    function setOwner(bytes32 _plan, address _owner) \n        isOwnerOfPlan(_plan)\n        public {\n        //plans[_plan].owner = _owner;\n    }\n\n    /** @dev Updates the name of the product (visible to the user)\n      * @param _name the name which they want to update it to\n    */\n\n    function setName(bytes32 _plan, string _name) \n        isOwnerOfPlan(_plan)\n        public {\n        //plans[_plan].name = _name;\n    }\n\n    /** @dev Updates the description of the product (visible to the user)\n      * @param _description the description which they want to update it to\n    */\n\n    function setDescription(bytes32 _plan, string _description) \n        isOwnerOfPlan(_plan)\n        public {\n        //plans[_plan].description = _description;\n    }\n    \n    /** @dev Get the interval for the plan\n     */\n\n    function getInterval(bytes32 _plan)\n        public\n        view \n        returns (uint _interval) {\n        return plans[_plan].interval;\n    }\n\n    /** @dev Get the amount for the plan\n     */\n\n    function getAmount(bytes32 _plan)\n        public\n        view \n        returns (uint _amount) {\n        return plans[_plan].amount;\n    }\n     \n\n    /**\n      * Internal functions\n    */\n\n    /**\n      * Private functions\n    */\n\n}\n",
  "sourcePath": "/Users/kermankohli/crypto/ethme/contracts/Plans.sol",
  "compiler": {
    "name": "solc",
    "version": "0.4.23+commit.124ca40d.Emscripten.clang"
  },
  "schemaVersion": "2.0.0",
  "updatedAt": "2018-04-21T06:34:55.946Z"
}