{
  "contractName": "Subscriptions",
  "abi": [
    {
      "constant": true,
      "inputs": [],
      "name": "owner",
      "outputs": [
        {
          "name": "",
          "type": "address"
        }
      ],
      "payable": false,
      "stateMutability": "view",
      "type": "function"
    },
    {
      "constant": true,
      "inputs": [
        {
          "name": "",
          "type": "bytes32"
        }
      ],
      "name": "subscriptions",
      "outputs": [
        {
          "name": "owner",
          "type": "address"
        },
        {
          "name": "planHash",
          "type": "bytes32"
        },
        {
          "name": "startDate",
          "type": "uint256"
        },
        {
          "name": "terminationDate",
          "type": "uint256"
        },
        {
          "name": "interval",
          "type": "uint256"
        },
        {
          "name": "amount",
          "type": "uint256"
        },
        {
          "name": "data",
          "type": "string"
        }
      ],
      "payable": false,
      "stateMutability": "view",
      "type": "function"
    },
    {
      "constant": true,
      "inputs": [],
      "name": "PLAN_CONTRACT",
      "outputs": [
        {
          "name": "",
          "type": "address"
        }
      ],
      "payable": false,
      "stateMutability": "view",
      "type": "function"
    },
    {
      "constant": false,
      "inputs": [
        {
          "name": "newOwner",
          "type": "address"
        }
      ],
      "name": "transferOwnership",
      "outputs": [],
      "payable": false,
      "stateMutability": "nonpayable",
      "type": "function"
    },
    {
      "inputs": [
        {
          "name": "_plan",
          "type": "address"
        }
      ],
      "payable": false,
      "stateMutability": "nonpayable",
      "type": "constructor"
    },
    {
      "anonymous": false,
      "inputs": [
        {
          "indexed": false,
          "name": "identifier",
          "type": "bytes32"
        }
      ],
      "name": "Created",
      "type": "event"
    },
    {
      "anonymous": false,
      "inputs": [
        {
          "indexed": false,
          "name": "identifier",
          "type": "bytes32"
        }
      ],
      "name": "Updated",
      "type": "event"
    },
    {
      "anonymous": false,
      "inputs": [
        {
          "indexed": false,
          "name": "identifier",
          "type": "bytes32"
        },
        {
          "indexed": false,
          "name": "terminationDate",
          "type": "uint256"
        }
      ],
      "name": "Terminated",
      "type": "event"
    },
    {
      "anonymous": false,
      "inputs": [
        {
          "indexed": true,
          "name": "previousOwner",
          "type": "address"
        },
        {
          "indexed": true,
          "name": "newOwner",
          "type": "address"
        }
      ],
      "name": "OwnershipTransferred",
      "type": "event"
    },
    {
      "constant": false,
      "inputs": [
        {
          "name": "_subscription",
          "type": "bytes32"
        },
        {
          "name": "_terminationDate",
          "type": "uint256"
        }
      ],
      "name": "terminateSubscription",
      "outputs": [],
      "payable": false,
      "stateMutability": "nonpayable",
      "type": "function"
    },
    {
      "constant": false,
      "inputs": [
        {
          "name": "_owner",
          "type": "address"
        },
        {
          "name": "_planHash",
          "type": "bytes32"
        },
        {
          "name": "_startDate",
          "type": "uint256"
        },
        {
          "name": "_data",
          "type": "string"
        }
      ],
      "name": "createSubscription",
      "outputs": [
        {
          "name": "_newSubscriptionHash",
          "type": "bytes32"
        }
      ],
      "payable": false,
      "stateMutability": "nonpayable",
      "type": "function"
    },
    {
      "constant": false,
      "inputs": [
        {
          "name": "_plan",
          "type": "address"
        }
      ],
      "name": "setPlan",
      "outputs": [],
      "payable": false,
      "stateMutability": "nonpayable",
      "type": "function"
    },
    {
      "constant": false,
      "inputs": [
        {
          "name": "_subscription",
          "type": "bytes32"
        },
        {
          "name": "_data",
          "type": "string"
        }
      ],
      "name": "setSubscriptionData",
      "outputs": [],
      "payable": false,
      "stateMutability": "nonpayable",
      "type": "function"
    },
    {
      "constant": true,
      "inputs": [
        {
          "name": "_subscription",
          "type": "bytes32"
        }
      ],
      "name": "getSubscriptionTerminationDate",
      "outputs": [
        {
          "name": "_terminationDate",
          "type": "uint256"
        }
      ],
      "payable": false,
      "stateMutability": "view",
      "type": "function"
    },
    {
      "constant": true,
      "inputs": [
        {
          "name": "_subscription",
          "type": "bytes32"
        }
      ],
      "name": "getSubscriptionData",
      "outputs": [
        {
          "name": "_data",
          "type": "string"
        }
      ],
      "payable": false,
      "stateMutability": "view",
      "type": "function"
    }
  ],
  "bytecode": "0x608060405234801561001057600080fd5b5060405160208061125383398101806040528101908080519060200190929190505050336000806101000a81548173ffffffffffffffffffffffffffffffffffffffff021916908373ffffffffffffffffffffffffffffffffffffffff160217905550336000806101000a81548173ffffffffffffffffffffffffffffffffffffffff021916908373ffffffffffffffffffffffffffffffffffffffff16021790555080600260006101000a81548173ffffffffffffffffffffffffffffffffffffffff021916908373ffffffffffffffffffffffffffffffffffffffff1602179055505061114f806101046000396000f3006080604052600436106100a4576000357c0100000000000000000000000000000000000000000000000000000000900463ffffffff1680631b10c3df146100a95780631fe15f3314610166578063625b310f146101dd5780638da5cb5b1461022057806394259c6c14610277578063c00506371461037f578063d4ce1c1b14610429578063d5f420e314610480578063da7b9eca146104c5578063f2fde38b14610500575b600080fd5b3480156100b557600080fd5b50610148600480360381019080803573ffffffffffffffffffffffffffffffffffffffff169060200190929190803560001916906020019092919080359060200190929190803590602001908201803590602001908080601f0160208091040260200160405190810160405280939291908181526020018383808284378201915050505050509192919290505050610543565b60405180826000191660001916815260200191505060405180910390f35b34801561017257600080fd5b506101db6004803603810190808035600019169060200190929190803590602001908201803590602001908080601f0160208091040260200160405190810160405280939291908181526020018383808284378201915050505050509192919290505050610970565b005b3480156101e957600080fd5b5061021e600480360381019080803573ffffffffffffffffffffffffffffffffffffffff169060200190929190505050610a62565b005b34801561022c57600080fd5b50610235610b01565b604051808273ffffffffffffffffffffffffffffffffffffffff1673ffffffffffffffffffffffffffffffffffffffff16815260200191505060405180910390f35b34801561028357600080fd5b506102a66004803603810190808035600019169060200190929190505050610b26565b604051808873ffffffffffffffffffffffffffffffffffffffff1673ffffffffffffffffffffffffffffffffffffffff168152602001876000191660001916815260200186815260200185815260200184815260200183815260200180602001828103825283818151815260200191508051906020019080838360005b8381101561033e578082015181840152602081019050610323565b50505050905090810190601f16801561036b5780820380516001836020036101000a031916815260200191505b509850505050505050505060405180910390f35b34801561038b57600080fd5b506103ae6004803603810190808035600019169060200190929190505050610c20565b6040518080602001828103825283818151815260200191508051906020019080838360005b838110156103ee5780820151818401526020810190506103d3565b50505050905090810190601f16801561041b5780820380516001836020036101000a031916815260200191505b509250505060405180910390f35b34801561043557600080fd5b5061043e610ce0565b604051808273ffffffffffffffffffffffffffffffffffffffff1673ffffffffffffffffffffffffffffffffffffffff16815260200191505060405180910390f35b34801561048c57600080fd5b506104af6004803603810190808035600019169060200190929190505050610d06565b6040518082815260200191505060405180910390f35b3480156104d157600080fd5b506104fe600480360381019080803560001916906020019092919080359060200190929190505050610d2e565b005b34801561050c57600080fd5b50610541600480360381019080803573ffffffffffffffffffffffffffffffffffffffff169060200190929190505050610e52565b005b600080600080610551610fa7565b60008973ffffffffffffffffffffffffffffffffffffffff161415151561057757600080fd5b42871015151561058657600080fd5b600260009054906101000a900473ffffffffffffffffffffffffffffffffffffffff1673ffffffffffffffffffffffffffffffffffffffff1663f413d29b896040518263ffffffff167c0100000000000000000000000000000000000000000000000000000000028152600401808260001916600019168152602001915050602060405180830381600087803b15801561061f57600080fd5b505af1158015610633573d6000803e3d6000fd5b505050506040513d602081101561064957600080fd5b81019080805190602001909291905050509350600260009054906101000a900473ffffffffffffffffffffffffffffffffffffffff1673ffffffffffffffffffffffffffffffffffffffff16635866b8f6896040518263ffffffff167c0100000000000000000000000000000000000000000000000000000000028152600401808260001916600019168152602001915050602060405180830381600087803b1580156106f557600080fd5b505af1158015610709573d6000803e3d6000fd5b505050506040513d602081101561071f57600080fd5b810190808051906020019092919050505092508888604051808373ffffffffffffffffffffffffffffffffffffffff1673ffffffffffffffffffffffffffffffffffffffff166c0100000000000000000000000002815260140182600019166000191681526020019250505060405180910390209150600060016000846000191660001916815260200190815260200160002060000160009054906101000a900473ffffffffffffffffffffffffffffffffffffffff1673ffffffffffffffffffffffffffffffffffffffff161415156107f857600080fd5b60008411151561080757600080fd5b60008311151561081657600080fd5b60e0604051908101604052808a73ffffffffffffffffffffffffffffffffffffffff16815260200189600019168152602001888152602001600081526020018581526020018481526020018781525090508060016000846000191660001916815260200190815260200160002060008201518160000160006101000a81548173ffffffffffffffffffffffffffffffffffffffff021916908373ffffffffffffffffffffffffffffffffffffffff1602179055506020820151816001019060001916905560408201518160020155606082015181600301556080820151816004015560a0820151816005015560c082015181600601908051906020019061091e929190610ffe565b509050507f102d25c49d33fcdb8976a3f2744e0785c98d9e43b88364859e6aec4ae82eff5c8260405180826000191660001916815260200191505060405180910390a181945050505050949350505050565b8160016000826000191660001916815260200190815260200160002060000160009054906101000a900473ffffffffffffffffffffffffffffffffffffffff1673ffffffffffffffffffffffffffffffffffffffff163373ffffffffffffffffffffffffffffffffffffffff161415156109e957600080fd5b82826001600086600019166000191681526020019081526020016000206006019080519060200190610a1c92919061107e565b507fae7f59c2ef152eb4d4f56fcc655f53926d60b7e58e08ec8c79387e25adbf33318160405180826000191660001916815260200191505060405180910390a150505050565b6000809054906101000a900473ffffffffffffffffffffffffffffffffffffffff1673ffffffffffffffffffffffffffffffffffffffff163373ffffffffffffffffffffffffffffffffffffffff16141515610abd57600080fd5b80600260006101000a81548173ffffffffffffffffffffffffffffffffffffffff021916908373ffffffffffffffffffffffffffffffffffffffff16021790555050565b6000809054906101000a900473ffffffffffffffffffffffffffffffffffffffff1681565b60016020528060005260406000206000915090508060000160009054906101000a900473ffffffffffffffffffffffffffffffffffffffff1690806001015490806002015490806003015490806004015490806005015490806006018054600181600116156101000203166002900480601f016020809104026020016040519081016040528092919081815260200182805460018160011615610100020316600290048015610c165780601f10610beb57610100808354040283529160200191610c16565b820191906000526020600020905b815481529060010190602001808311610bf957829003601f168201915b5050505050905087565b60606001600083600019166000191681526020019081526020016000206006018054600181600116156101000203166002900480601f016020809104026020016040519081016040528092919081815260200182805460018160011615610100020316600290048015610cd45780601f10610ca957610100808354040283529160200191610cd4565b820191906000526020600020905b815481529060010190602001808311610cb757829003601f168201915b50505050509050919050565b600260009054906101000a900473ffffffffffffffffffffffffffffffffffffffff1681565b6000600160008360001916600019168152602001908152602001600020600301549050919050565b8160016000826000191660001916815260200190815260200160002060000160009054906101000a900473ffffffffffffffffffffffffffffffffffffffff1673ffffffffffffffffffffffffffffffffffffffff163373ffffffffffffffffffffffffffffffffffffffff16141515610da757600080fd5b428210151515610db657600080fd5b600060016000856000191660001916815260200190815260200160002060030154141515610de357600080fd5b81600160008560001916600019168152602001908152602001600020600301819055507fe8e8a511b6a7d9af6f8c5e2b23c2a3d6672383462f00d00b1db7c7c2b94104c783836040518083600019166000191681526020018281526020019250505060405180910390a1505050565b6000809054906101000a900473ffffffffffffffffffffffffffffffffffffffff1673ffffffffffffffffffffffffffffffffffffffff163373ffffffffffffffffffffffffffffffffffffffff16141515610ead57600080fd5b600073ffffffffffffffffffffffffffffffffffffffff168173ffffffffffffffffffffffffffffffffffffffff1614151515610ee957600080fd5b8073ffffffffffffffffffffffffffffffffffffffff166000809054906101000a900473ffffffffffffffffffffffffffffffffffffffff1673ffffffffffffffffffffffffffffffffffffffff167f8be0079c531659141344cd1fd0a4f28419497f9722a3daafe3b4186f6b6457e060405160405180910390a3806000806101000a81548173ffffffffffffffffffffffffffffffffffffffff021916908373ffffffffffffffffffffffffffffffffffffffff16021790555050565b60e060405190810160405280600073ffffffffffffffffffffffffffffffffffffffff1681526020016000801916815260200160008152602001600081526020016000815260200160008152602001606081525090565b828054600181600116156101000203166002900490600052602060002090601f016020900481019282601f1061103f57805160ff191683800117855561106d565b8280016001018555821561106d579182015b8281111561106c578251825591602001919060010190611051565b5b50905061107a91906110fe565b5090565b828054600181600116156101000203166002900490600052602060002090601f016020900481019282601f106110bf57805160ff19168380011785556110ed565b828001600101855582156110ed579182015b828111156110ec5782518255916020019190600101906110d1565b5b5090506110fa91906110fe565b5090565b61112091905b8082111561111c576000816000905550600101611104565b5090565b905600a165627a7a723058209b2c43739b010e27d2426307abbef950b98d67e9f157ec63e11ae2f63dbebebb0029",
  "source": "pragma solidity ^0.4.21;\n\nimport \"./Plans.sol\";\nimport \"./base/ownership/Ownable.sol\";\n\n/** @title Contains all the data required for a user's active subscription. */\n/** @author Kerman Kohli - <kerman@TBD.com> */\n\ncontract Subscriptions is Ownable {\n\n    struct Subscription {\n\n        address owner;\n\n        bytes32 planHash;\n\n        uint startDate;\n        uint terminationDate;\n\n        uint interval;\n        uint amount;\n\n        string data;\n\n    }\n\n    mapping (bytes32 => Subscription) public subscriptions; // A mapping containing all the plans\n\n    Plans public PLAN_CONTRACT;\n\n    event Created(bytes32 identifier);\n    event Updated(bytes32 identifier);\n    event Terminated(bytes32 identifier, uint terminationDate);\n\n    /**\n      * Modifiers\n    */\n\n    modifier isOwnerOfSubscription(bytes32 _subscription) {\n        require(msg.sender == subscriptions[_subscription].owner);\n        _;\n    }\n\n    modifier shouldEmitChanges(bytes32 _subscription) {\n        _;\n        emit Updated(_subscription);\n    }\n\n    /**\n      * External functions\n    */\n\n    function terminateSubscription(bytes32 _subscription, uint _terminationDate)\n        external\n        isOwnerOfSubscription(_subscription) {\n        require(_terminationDate >= block.timestamp);\n        require(subscriptions[_subscription].terminationDate == 0); // If it's already been set then we don't want it to be modified\n\n        subscriptions[_subscription].terminationDate = _terminationDate;\n\n        emit Terminated(_subscription, _terminationDate);\n    }\n\n    /**\n      * Public functions\n    */\n\n    /** @dev Constructor function\n    */\n\n    function Subscriptions(address _plan) public {\n        owner = msg.sender;\n        PLAN_CONTRACT = Plans(_plan);\n    }\n\n    /** dev This is the function for creating a new subscription.\n      * @param _owner the address which owns this contract (will be the user in this case).\n      * @param _startDate the date from which this subscription should start.\n      * @param _planHash a reference to the plan they would like to subscribe to.\n      * @param _data any extra data they'd like to store.\n    */\n\n    function createSubscription(\n        address _owner,\n        bytes32 _planHash,\n        uint _startDate,\n        string _data\n    )\n        public\n        returns (bytes32 _newSubscriptionHash)\n    {\n        require(_owner != 0x0);\n        require(_startDate >= block.timestamp);\n\n        uint planInterval = PLAN_CONTRACT.getPlanInterval(_planHash);\n        uint planAmount = PLAN_CONTRACT.getPlanAmount(_planHash);\n\n        bytes32 newSubscriptionHash = keccak256(_owner, _planHash);\n\n        require(subscriptions[newSubscriptionHash].owner == 0x0);\n        require(planInterval > 0); // If an invalid hash isn't provided then it will be 0.\n        require(planAmount > 0); // If an invalid hash isn't provided then it will be 0.\n\n        Subscription memory newSubscription = Subscription({\n            owner: _owner, \n            planHash: _planHash, \n            startDate: _startDate, \n            terminationDate: 0,\n            interval: planInterval,\n            amount: planAmount,\n            data: _data\n        });\n\n        subscriptions[newSubscriptionHash] = newSubscription;\n\n        emit Created(newSubscriptionHash);\n\n        return newSubscriptionHash;\n    }\n\n    /** @dev Updates the contract plan.\n      * @param _plan the address which they want to update it to.\n    */\n\n    function setPlan(address _plan) \n        public \n        onlyOwner {\n        PLAN_CONTRACT = Plans(_plan);\n    }\n\n    /** @dev Updates the data field which can be used to store anything extra.\n      * @param _subscription is the hash of the user's address + identifier.\n      * @param _data the data which they want to update it to.\n    */\n\n    function setSubscriptionData(bytes32 _subscription, string _data) \n        public\n        isOwnerOfSubscription(_subscription)\n        shouldEmitChanges(_subscription) {\n        subscriptions[_subscription].data = _data;\n    }\n\n     /** @dev Get the termination date for the subscription.\n      * @param _subscription is the hash of the user's address + identifier.\n    */\n\n    function getSubscriptionTerminationDate(bytes32 _subscription)\n        public\n        view \n        returns (uint _terminationDate) {\n        return subscriptions[_subscription].terminationDate;\n    }\n    \n    /** @dev Get the extra data for the plan.\n      * @param _subscription is the hash of the user's address + identifier.\n    */\n\n    function getSubscriptionData(bytes32 _subscription)\n        public\n        view \n        returns (string _data) {\n        return subscriptions[_subscription].data;\n    }\n\n    /**\n      * Internal functions\n    */\n\n    /**\n      * Private functions\n    */\n\n}",
  "sourcePath": "/Users/kermankohli/crypto/ethme/contracts/Subscriptions.sol",
  "compiler": {
    "name": "solc",
    "version": "0.4.23+commit.124ca40d.Emscripten.clang"
  },
  "schemaVersion": "2.0.0",
  "updatedAt": "2018-04-22T07:49:07.390Z"
}