{
  "contractName": "Subscription",
  "abi": [
    {
      "constant": true,
      "inputs": [],
      "name": "startDate",
      "outputs": [
        {
          "name": "",
          "type": "uint256"
        }
      ],
      "payable": false,
      "stateMutability": "view",
      "type": "function"
    },
    {
      "constant": true,
      "inputs": [],
      "name": "terminationDate",
      "outputs": [
        {
          "name": "",
          "type": "uint256"
        }
      ],
      "payable": false,
      "stateMutability": "view",
      "type": "function"
    },
    {
      "constant": true,
      "inputs": [
        {
          "name": "",
          "type": "uint256"
        }
      ],
      "name": "payments",
      "outputs": [
        {
          "name": "datePaid",
          "type": "uint256"
        },
        {
          "name": "success",
          "type": "bool"
        }
      ],
      "payable": false,
      "stateMutability": "view",
      "type": "function"
    },
    {
      "constant": true,
      "inputs": [],
      "name": "owner",
      "outputs": [
        {
          "name": "",
          "type": "address"
        }
      ],
      "payable": false,
      "stateMutability": "view",
      "type": "function"
    },
    {
      "constant": true,
      "inputs": [],
      "name": "interval",
      "outputs": [
        {
          "name": "",
          "type": "uint256"
        }
      ],
      "payable": false,
      "stateMutability": "view",
      "type": "function"
    },
    {
      "constant": true,
      "inputs": [],
      "name": "amount",
      "outputs": [
        {
          "name": "",
          "type": "uint256"
        }
      ],
      "payable": false,
      "stateMutability": "view",
      "type": "function"
    },
    {
      "constant": true,
      "inputs": [],
      "name": "PLAN_CONTRACT",
      "outputs": [
        {
          "name": "",
          "type": "address"
        }
      ],
      "payable": false,
      "stateMutability": "view",
      "type": "function"
    },
    {
      "inputs": [],
      "payable": false,
      "stateMutability": "nonpayable",
      "type": "constructor"
    }
  ],
  "bytecode": "0x608060405234801561001057600080fd5b50336000806101000a81548173ffffffffffffffffffffffffffffffffffffffff021916908373ffffffffffffffffffffffffffffffffffffffff1602179055506102fd806100606000396000f300608060405260043610610083576000357c0100000000000000000000000000000000000000000000000000000000900463ffffffff1680630b97bc86146100885780633005c13f146100b357806387d81789146100de5780638da5cb5b1461012a578063947a36fb14610181578063aa8c217c146101ac578063d4ce1c1b146101d7575b600080fd5b34801561009457600080fd5b5061009d61022e565b6040518082815260200191505060405180910390f35b3480156100bf57600080fd5b506100c8610234565b6040518082815260200191505060405180910390f35b3480156100ea57600080fd5b506101096004803603810190808035906020019092919050505061023a565b60405180838152602001821515151581526020019250505060405180910390f35b34801561013657600080fd5b5061013f61027a565b604051808273ffffffffffffffffffffffffffffffffffffffff1673ffffffffffffffffffffffffffffffffffffffff16815260200191505060405180910390f35b34801561018d57600080fd5b5061019661029f565b6040518082815260200191505060405180910390f35b3480156101b857600080fd5b506101c16102a5565b6040518082815260200191505060405180910390f35b3480156101e357600080fd5b506101ec6102ab565b604051808273ffffffffffffffffffffffffffffffffffffffff1673ffffffffffffffffffffffffffffffffffffffff16815260200191505060405180910390f35b60015481565b60025481565b60058181548110151561024957fe5b90600052602060002090600202016000915090508060000154908060010160009054906101000a900460ff16905082565b6000809054906101000a900473ffffffffffffffffffffffffffffffffffffffff1681565b60035481565b60045481565b600660009054906101000a900473ffffffffffffffffffffffffffffffffffffffff16815600a165627a7a72305820e19843b99a193cfcd1ab39d32e17f4e9a8d26d20ff110cd07c3fcd53c78722250029",
  "source": "pragma solidity ^0.4.0;\n\nimport \"./Plans.sol\";\n\n/** @title Contains all the data required for a user's active subscription */\n\ncontract Subscription {\n\n    struct Payment {\n        uint datePaid;\n        bool success;\n    }\n\n    address public owner; // The owner of the contract being the user in this case\n\n    uint public startDate;\n    uint public terminationDate;\n\n    uint public interval;\n    uint public amount;\n\n    Payment[] public payments;\n\n    Plans public PLAN_CONTRACT;\n\n    /**\n      * Modifiers\n    */\n\n    /**\n      * External functions\n    */\n\n    /**\n      * Public functions\n    */\n\n    /** dev This is the constructor function for creating a new subscription\n      * param _owner the address which owns this contract (will be the user in this case)\n      * param _startDate the date from which this subscription should start\n      * param _plan a reference to the plan they would like to subscribe to\n    */\n\n    /*function Subscription(\n        address _owner,\n        uint _startDate,\n        address _plan\n    )\n        public\n    {\n\n        owner = _owner;\n        startDate = _startDate;\n        PLAN_CONTRACT = Plans(_plan);\n\n        // Although the plan owner can't update the interval or amount we want to be sure that it doesn't change by using a referenced value\n        interval = PLAN_CONTRACT.getInterval();\n        amount = PLAN_CONTRACT.getAmount();\n    }*/\n\n    function Subscription() public {\n        owner = msg.sender;\n    }\n\n    /**\n      * Internal functions\n    */\n\n    /**\n      * Private functions\n    */\n\n}",
  "sourcePath": "/Users/kermankohli/crypto/ethme/contracts/Subscription.sol",
  "compiler": {
    "name": "solc",
    "version": "0.4.23+commit.124ca40d.Emscripten.clang"
  },
  "schemaVersion": "2.0.0",
  "updatedAt": "2018-04-21T06:34:55.947Z"
}